{
  "contractName": "SupplyChain",
  "abi": [
    {
      "inputs": [],
      "stateMutability": "payable",
      "type": "constructor"
    },
    {
      "anonymous": false,
      "inputs": [
        {
          "indexed": false,
          "internalType": "uint256",
          "name": "upc",
          "type": "uint256"
        },
        {
          "indexed": false,
          "internalType": "uint256",
          "name": "age",
          "type": "uint256"
        }
      ],
      "name": "Elevaged",
      "type": "event"
    },
    {
      "anonymous": false,
      "inputs": [
        {
          "indexed": false,
          "internalType": "uint256",
          "name": "upc",
          "type": "uint256"
        }
      ],
      "name": "ForSale",
      "type": "event"
    },
    {
      "anonymous": false,
      "inputs": [
        {
          "indexed": false,
          "internalType": "uint256",
          "name": "upc",
          "type": "uint256"
        }
      ],
      "name": "Packed",
      "type": "event"
    },
    {
      "anonymous": false,
      "inputs": [
        {
          "indexed": false,
          "internalType": "uint256",
          "name": "upc",
          "type": "uint256"
        }
      ],
      "name": "Purchased",
      "type": "event"
    },
    {
      "anonymous": false,
      "inputs": [
        {
          "indexed": false,
          "internalType": "uint256",
          "name": "upc",
          "type": "uint256"
        }
      ],
      "name": "Received",
      "type": "event"
    },
    {
      "anonymous": false,
      "inputs": [
        {
          "indexed": false,
          "internalType": "uint256",
          "name": "upc",
          "type": "uint256"
        }
      ],
      "name": "Shipped",
      "type": "event"
    },
    {
      "anonymous": false,
      "inputs": [
        {
          "indexed": false,
          "internalType": "uint256",
          "name": "upc",
          "type": "uint256"
        }
      ],
      "name": "Sold",
      "type": "event"
    },
    {
      "anonymous": false,
      "inputs": [
        {
          "indexed": false,
          "internalType": "uint256",
          "name": "upc",
          "type": "uint256"
        }
      ],
      "name": "Vinified",
      "type": "event"
    },
    {
      "anonymous": false,
      "inputs": [
        {
          "indexed": false,
          "internalType": "uint256",
          "name": "upc",
          "type": "uint256"
        }
      ],
      "name": "Viticultured",
      "type": "event"
    },
    {
      "inputs": [],
      "name": "kill",
      "outputs": [],
      "stateMutability": "nonpayable",
      "type": "function"
    },
    {
      "inputs": [
        {
          "internalType": "uint256",
          "name": "_upc",
          "type": "uint256"
        },
        {
          "internalType": "address",
          "name": "_originVigneronID",
          "type": "address"
        },
        {
          "internalType": "string",
          "name": "_originVineyardName",
          "type": "string"
        },
        {
          "internalType": "string",
          "name": "_originVineyardInformation",
          "type": "string"
        },
        {
          "internalType": "string",
          "name": "_originVineyardLatitude",
          "type": "string"
        },
        {
          "internalType": "string",
          "name": "_originVineyardLongitude",
          "type": "string"
        },
        {
          "internalType": "string",
          "name": "_productNotes",
          "type": "string"
        }
      ],
      "name": "viticultureItem",
      "outputs": [],
      "stateMutability": "nonpayable",
      "type": "function"
    },
    {
      "inputs": [
        {
          "internalType": "uint256",
          "name": "_upc",
          "type": "uint256"
        }
      ],
      "name": "vinifyItem",
      "outputs": [],
      "stateMutability": "nonpayable",
      "type": "function"
    },
    {
      "inputs": [
        {
          "internalType": "uint256",
          "name": "_upc",
          "type": "uint256"
        },
        {
          "internalType": "uint256",
          "name": "_age",
          "type": "uint256"
        }
      ],
      "name": "elevageItem",
      "outputs": [],
      "stateMutability": "nonpayable",
      "type": "function"
    },
    {
      "inputs": [
        {
          "internalType": "uint256",
          "name": "_upc",
          "type": "uint256"
        }
      ],
      "name": "packItem",
      "outputs": [],
      "stateMutability": "nonpayable",
      "type": "function"
    },
    {
      "inputs": [
        {
          "internalType": "uint256",
          "name": "_upc",
          "type": "uint256"
        },
        {
          "internalType": "uint256",
          "name": "_price",
          "type": "uint256"
        }
      ],
      "name": "sellItem",
      "outputs": [],
      "stateMutability": "nonpayable",
      "type": "function"
    },
    {
      "inputs": [
        {
          "internalType": "uint256",
          "name": "_upc",
          "type": "uint256"
        }
      ],
      "name": "buyItem",
      "outputs": [],
      "stateMutability": "payable",
      "type": "function"
    },
    {
      "inputs": [
        {
          "internalType": "uint256",
          "name": "_upc",
          "type": "uint256"
        }
      ],
      "name": "shipItem",
      "outputs": [],
      "stateMutability": "nonpayable",
      "type": "function"
    },
    {
      "inputs": [
        {
          "internalType": "uint256",
          "name": "_upc",
          "type": "uint256"
        }
      ],
      "name": "receiveItem",
      "outputs": [],
      "stateMutability": "nonpayable",
      "type": "function"
    },
    {
      "inputs": [
        {
          "internalType": "uint256",
          "name": "_upc",
          "type": "uint256"
        }
      ],
      "name": "purchaseItem",
      "outputs": [],
      "stateMutability": "nonpayable",
      "type": "function"
    },
    {
      "inputs": [
        {
          "internalType": "uint256",
          "name": "_upc",
          "type": "uint256"
        }
      ],
      "name": "fetchItemBufferOne",
      "outputs": [
        {
          "internalType": "uint256",
          "name": "itemSKU",
          "type": "uint256"
        },
        {
          "internalType": "uint256",
          "name": "itemUPC",
          "type": "uint256"
        },
        {
          "internalType": "address",
          "name": "ownerID",
          "type": "address"
        },
        {
          "internalType": "address",
          "name": "originVigneronID",
          "type": "address"
        },
        {
          "internalType": "string",
          "name": "originVineyardName",
          "type": "string"
        },
        {
          "internalType": "string",
          "name": "originVineyardInformation",
          "type": "string"
        },
        {
          "internalType": "string",
          "name": "originVineyardLatitude",
          "type": "string"
        },
        {
          "internalType": "string",
          "name": "originVineyardLongitude",
          "type": "string"
        }
      ],
      "stateMutability": "view",
      "type": "function"
    },
    {
      "inputs": [
        {
          "internalType": "uint256",
          "name": "_upc",
          "type": "uint256"
        }
      ],
      "name": "fetchItemBufferTwo",
      "outputs": [
        {
          "internalType": "uint256",
          "name": "itemSKU",
          "type": "uint256"
        },
        {
          "internalType": "uint256",
          "name": "itemUPC",
          "type": "uint256"
        },
        {
          "internalType": "uint256",
          "name": "productID",
          "type": "uint256"
        },
        {
          "internalType": "uint256",
          "name": "productAge",
          "type": "uint256"
        },
        {
          "internalType": "string",
          "name": "productNotes",
          "type": "string"
        },
        {
          "internalType": "uint256",
          "name": "productPrice",
          "type": "uint256"
        },
        {
          "internalType": "uint256",
          "name": "itemState",
          "type": "uint256"
        },
        {
          "internalType": "address",
          "name": "distributorID",
          "type": "address"
        },
        {
          "internalType": "address",
          "name": "retailerID",
          "type": "address"
        },
        {
          "internalType": "address",
          "name": "consumerID",
          "type": "address"
        }
      ],
      "stateMutability": "view",
      "type": "function"
    }
  ],
  "bytecode": "0x6080604052336000806101000a81548173ffffffffffffffffffffffffffffffffffffffff021916908373ffffffffffffffffffffffffffffffffffffffff160217905550600160028190555060018081905550612574806100626000396000f3fe6080604052600436106100a75760003560e01c8063a26be99911610064578063a26be999146101c8578063cf47c8ea146101f1578063d38ea5bf1461021a578063e7fb74c714610243578063f30fc4801461025f578063f61c899a14610288576100a7565b80632d923561146100ac57806341c0e1b5146100d5578063546c4773146100ec57806366225ff91461011557806377c459131461015b5780639f53ff161461019f575b600080fd5b3480156100b857600080fd5b506100d360048036038101906100ce9190611a77565b6102b1565b005b3480156100e157600080fd5b506100ea61040c565b005b3480156100f857600080fd5b50610113600480360381019061010e9190611ab7565b61049b565b005b34801561012157600080fd5b5061013c60048036038101906101379190611ab7565b6105da565b6040516101529a99989796959493929190611bcd565b60405180910390f35b34801561016757600080fd5b50610182600480360381019061017d9190611ab7565b6107e2565b604051610196989796959493929190611c70565b60405180910390f35b3480156101ab57600080fd5b506101c660048036038101906101c19190611a77565b610b0b565b005b3480156101d457600080fd5b506101ef60048036038101906101ea9190611ab7565b610c68565b005b3480156101fd57600080fd5b5061021860048036038101906102139190611e6b565b610e17565b005b34801561022657600080fd5b50610241600480360381019061023c9190611ab7565b6111e5565b005b61025d60048036038101906102589190611ab7565b611394565b005b34801561026b57600080fd5b5061028660048036038101906102819190611ab7565b61170d565b005b34801561029457600080fd5b506102af60048036038101906102aa9190611ab7565b61184b565b005b81600360088111156102c6576102c5611f99565b5b60036000838152602001908152602001600020600c0160009054906101000a900460ff1660088111156102fc576102fb611f99565b5b1461033c576040517f08c379a000000000000000000000000000000000000000000000000000000000815260040161033390612014565b60405180910390fd5b338073ffffffffffffffffffffffffffffffffffffffff163373ffffffffffffffffffffffffffffffffffffffff161461037557600080fd5b600460036000868152602001908152602001600020600c0160006101000a81548160ff021916908360088111156103af576103ae611f99565b5b02179055508260036000868152602001908152602001600020600b01819055507fa96ae0fc3224ebd79eebfe54bd130cc9cb94416cddd1f2386115e00b72532468846040516103fe9190612034565b60405180910390a150505050565b60008054906101000a900473ffffffffffffffffffffffffffffffffffffffff1673ffffffffffffffffffffffffffffffffffffffff163373ffffffffffffffffffffffffffffffffffffffff1614156104995760008054906101000a900473ffffffffffffffffffffffffffffffffffffffff1673ffffffffffffffffffffffffffffffffffffffff16ff5b565b80600060088111156104b0576104af611f99565b5b60036000838152602001908152602001600020600c0160009054906101000a900460ff1660088111156104e6576104e5611f99565b5b14610526576040517f08c379a000000000000000000000000000000000000000000000000000000000815260040161051d906120c1565b60405180910390fd5b338073ffffffffffffffffffffffffffffffffffffffff163373ffffffffffffffffffffffffffffffffffffffff161461055f57600080fd5b600160036000858152602001908152602001600020600c0160006101000a81548160ff0219169083600881111561059957610598611f99565b5b02179055507f7b498e50e374e27f88833db3180c3ba1b2a52b2872a74a345347829bd3ea2be0836040516105cd9190612034565b60405180910390a1505050565b60008060008060606000806000806000600360008c81526020019081526020016000206000015499508a9850600360008c8152602001908152602001600020600801549750600360008c8152602001908152602001600020600901549650600360008c8152602001908152602001600020600a01805461065990612110565b80601f016020809104026020016040519081016040528092919081815260200182805461068590612110565b80156106d25780601f106106a7576101008083540402835291602001916106d2565b820191906000526020600020905b8154815290600101906020018083116106b557829003601f168201915b50505050509550600360008c8152602001908152602001600020600b01549450600360008c8152602001908152602001600020600c0160009054906101000a900460ff16600881111561072857610727611f99565b5b9350600360008c8152602001908152602001600020600c0160019054906101000a900473ffffffffffffffffffffffffffffffffffffffff169250600360008c8152602001908152602001600020600d0160009054906101000a900473ffffffffffffffffffffffffffffffffffffffff169150600360008c8152602001908152602001600020600e0160009054906101000a900473ffffffffffffffffffffffffffffffffffffffff1690509193959799509193959799565b600080600080606080606080600360008a8152602001908152602001600020600001549750889650600360008a815260200190815260200160002060020160009054906101000a900473ffffffffffffffffffffffffffffffffffffffff169550600360008a815260200190815260200160002060030160009054906101000a900473ffffffffffffffffffffffffffffffffffffffff169450600360008a8152602001908152602001600020600401805461089d90612110565b80601f01602080910402602001604051908101604052809291908181526020018280546108c990612110565b80156109165780601f106108eb57610100808354040283529160200191610916565b820191906000526020600020905b8154815290600101906020018083116108f957829003601f168201915b50505050509350600360008a8152602001908152602001600020600501805461093e90612110565b80601f016020809104026020016040519081016040528092919081815260200182805461096a90612110565b80156109b75780601f1061098c576101008083540402835291602001916109b7565b820191906000526020600020905b81548152906001019060200180831161099a57829003601f168201915b50505050509250600360008a815260200190815260200160002060060180546109df90612110565b80601f0160208091040260200160405190810160405280929190818152602001828054610a0b90612110565b8015610a585780601f10610a2d57610100808354040283529160200191610a58565b820191906000526020600020905b815481529060010190602001808311610a3b57829003601f168201915b50505050509150600360008a81526020019081526020016000206007018054610a8090612110565b80601f0160208091040260200160405190810160405280929190818152602001828054610aac90612110565b8015610af95780601f10610ace57610100808354040283529160200191610af9565b820191906000526020600020905b815481529060010190602001808311610adc57829003601f168201915b50505050509050919395975091939597565b8160016008811115610b2057610b1f611f99565b5b60036000838152602001908152602001600020600c0160009054906101000a900460ff166008811115610b5657610b55611f99565b5b14610b96576040517f08c379a0000000000000000000000000000000000000000000000000000000008152600401610b8d906121b4565b60405180910390fd5b338073ffffffffffffffffffffffffffffffffffffffff163373ffffffffffffffffffffffffffffffffffffffff1614610bcf57600080fd5b600260036000868152602001908152602001600020600c0160006101000a81548160ff02191690836008811115610c0957610c08611f99565b5b02179055508260036000868152602001908152602001600020600901819055507f86a14a2a100b49b8de405c637c1d46f6a01e8599fe5075a570f215f6ab2835da8484604051610c5a9291906121d4565b60405180910390a150505050565b8060066008811115610c7d57610c7c611f99565b5b60036000838152602001908152602001600020600c0160009054906101000a900460ff166008811115610cb357610cb2611f99565b5b14610cf3576040517f08c379a0000000000000000000000000000000000000000000000000000000008152600401610cea90612249565b60405180910390fd5b336003600084815260200190815260200160002060020160006101000a81548173ffffffffffffffffffffffffffffffffffffffff021916908373ffffffffffffffffffffffffffffffffffffffff1602179055503360036000848152602001908152602001600020600d0160006101000a81548173ffffffffffffffffffffffffffffffffffffffff021916908373ffffffffffffffffffffffffffffffffffffffff160217905550600760036000848152602001908152602001600020600c0160006101000a81548160ff02191690836008811115610dd757610dd6611f99565b5b02179055507fa8142743f8f70a4c26f3691cf4ed59718381fb2f18070ec52be1f1022d85555782604051610e0b9190612034565b60405180910390a15050565b600087600254610e279190612298565b905060405180610200016040528060025481526020018981526020018873ffffffffffffffffffffffffffffffffffffffff1681526020018873ffffffffffffffffffffffffffffffffffffffff168152602001878152602001868152602001858152602001848152602001828152602001600081526020018381526020016000815260200160006008811115610ec157610ec0611f99565b5b8152602001600073ffffffffffffffffffffffffffffffffffffffff168152602001600073ffffffffffffffffffffffffffffffffffffffff168152602001600073ffffffffffffffffffffffffffffffffffffffff16815250600360008a8152602001908152602001600020600082015181600001556020820151816001015560408201518160020160006101000a81548173ffffffffffffffffffffffffffffffffffffffff021916908373ffffffffffffffffffffffffffffffffffffffff16021790555060608201518160030160006101000a81548173ffffffffffffffffffffffffffffffffffffffff021916908373ffffffffffffffffffffffffffffffffffffffff1602179055506080820151816004019080519060200190610fec92919061198a565b5060a082015181600501908051906020019061100992919061198a565b5060c082015181600601908051906020019061102692919061198a565b5060e082015181600701908051906020019061104392919061198a565b506101008201518160080155610120820151816009015561014082015181600a01908051906020019061107792919061198a565b5061016082015181600b015561018082015181600c0160006101000a81548160ff021916908360088111156110af576110ae611f99565b5b02179055506101a082015181600c0160016101000a81548173ffffffffffffffffffffffffffffffffffffffff021916908373ffffffffffffffffffffffffffffffffffffffff1602179055506101c082015181600d0160006101000a81548173ffffffffffffffffffffffffffffffffffffffff021916908373ffffffffffffffffffffffffffffffffffffffff1602179055506101e082015181600e0160006101000a81548173ffffffffffffffffffffffffffffffffffffffff021916908373ffffffffffffffffffffffffffffffffffffffff160217905550905050600160025461119e9190612298565b6002819055507fed6148fa7ac723c43ace6dfc06309afb0d0c3fce8dd23c21a42e88f9665a478c886040516111d39190612034565b60405180910390a15050505050505050565b80600760088111156111fa576111f9611f99565b5b60036000838152602001908152602001600020600c0160009054906101000a900460ff1660088111156112305761122f611f99565b5b14611270576040517f08c379a000000000000000000000000000000000000000000000000000000000815260040161126790612360565b60405180910390fd5b336003600084815260200190815260200160002060020160006101000a81548173ffffffffffffffffffffffffffffffffffffffff021916908373ffffffffffffffffffffffffffffffffffffffff1602179055503360036000848152602001908152602001600020600e0160006101000a81548173ffffffffffffffffffffffffffffffffffffffff021916908373ffffffffffffffffffffffffffffffffffffffff160217905550600860036000848152602001908152602001600020600c0160006101000a81548160ff0219169083600881111561135457611353611f99565b5b02179055507f653d56639fee6b566a5c804764e9689de38645f0b733df89a36a1b7b42173dd8826040516113889190612034565b60405180910390a15050565b80600460088111156113a9576113a8611f99565b5b60036000838152602001908152602001600020600c0160009054906101000a900460ff1660088111156113df576113de611f99565b5b1461141f576040517f08c379a0000000000000000000000000000000000000000000000000000000008152600401611416906123cc565b60405180910390fd5b348034101561142d57600080fd5b600154336003600086815260200190815260200160002060020160006101000a81548173ffffffffffffffffffffffffffffffffffffffff021916908373ffffffffffffffffffffffffffffffffffffffff1602179055503360036000868152602001908152602001600020600c0160016101000a81548173ffffffffffffffffffffffffffffffffffffffff021916908373ffffffffffffffffffffffffffffffffffffffff160217905550600560036000868152602001908152602001600020600c0160006101000a81548160ff0219169083600881111561151457611513611f99565b5b0217905550600060036000600154815260200190815260200160002060030160009054906101000a900473ffffffffffffffffffffffffffffffffffffffff169050600060036000878152602001908152602001600020600b0154905060008273ffffffffffffffffffffffffffffffffffffffff16826040516115979061241d565b60006040518083038185875af1925050503d80600081146115d4576040519150601f19603f3d011682016040523d82523d6000602084013e6115d9565b606091505b505090508061161d576040517f08c379a00000000000000000000000000000000000000000000000000000000081526004016116149061247e565b60405180910390fd5b7f92f64ca637d023f354075a4be751b169c1a8a9ccb6d33cdd0cb35205439957278760405161164c9190612034565b60405180910390a1505050600060036000838152602001908152602001600020600b0154905060008134611680919061249e565b9050600060036000858152602001908152602001600020600e0160009054906101000a900473ffffffffffffffffffffffffffffffffffffffff1690508073ffffffffffffffffffffffffffffffffffffffff166108fc839081150290604051600060405180830381858888f19350505050158015611703573d6000803e3d6000fd5b5050505050505050565b806002600881111561172257611721611f99565b5b60036000838152602001908152602001600020600c0160009054906101000a900460ff16600881111561175857611757611f99565b5b14611798576040517f08c379a000000000000000000000000000000000000000000000000000000000815260040161178f906121b4565b60405180910390fd5b338073ffffffffffffffffffffffffffffffffffffffff163373ffffffffffffffffffffffffffffffffffffffff16146117d157600080fd5b6003806000858152602001908152602001600020600c0160006101000a81548160ff0219169083600881111561180a57611809611f99565b5b02179055507f9b3b66e2380b690bae22c73ef1428fb0c91e72fe14a4b6defa13035214187aff8360405161183e9190612034565b60405180910390a1505050565b80600560088111156118605761185f611f99565b5b60036000838152602001908152602001600020600c0160009054906101000a900460ff16600881111561189657611895611f99565b5b146118d6576040517f08c379a00000000000000000000000000000000000000000000000000000000081526004016118cd9061251e565b60405180910390fd5b338073ffffffffffffffffffffffffffffffffffffffff163373ffffffffffffffffffffffffffffffffffffffff161461190f57600080fd5b600660036000858152602001908152602001600020600c0160006101000a81548160ff0219169083600881111561194957611948611f99565b5b02179055507ff00b9a5725b80c54016f42114f6ed7792d22eecb116011c4afac29c57bef6c958360405161197d9190612034565b60405180910390a1505050565b82805461199690612110565b90600052602060002090601f0160209004810192826119b857600085556119ff565b82601f106119d157805160ff19168380011785556119ff565b828001600101855582156119ff579182015b828111156119fe5782518255916020019190600101906119e3565b5b509050611a0c9190611a10565b5090565b5b80821115611a29576000816000905550600101611a11565b5090565b6000604051905090565b600080fd5b600080fd5b6000819050919050565b611a5481611a41565b8114611a5f57600080fd5b50565b600081359050611a7181611a4b565b92915050565b60008060408385031215611a8e57611a8d611a37565b5b6000611a9c85828601611a62565b9250506020611aad85828601611a62565b9150509250929050565b600060208284031215611acd57611acc611a37565b5b6000611adb84828501611a62565b91505092915050565b611aed81611a41565b82525050565b600081519050919050565b600082825260208201905092915050565b60005b83811015611b2d578082015181840152602081019050611b12565b83811115611b3c576000848401525b50505050565b6000601f19601f8301169050919050565b6000611b5e82611af3565b611b688185611afe565b9350611b78818560208601611b0f565b611b8181611b42565b840191505092915050565b600073ffffffffffffffffffffffffffffffffffffffff82169050919050565b6000611bb782611b8c565b9050919050565b611bc781611bac565b82525050565b600061014082019050611be3600083018d611ae4565b611bf0602083018c611ae4565b611bfd604083018b611ae4565b611c0a606083018a611ae4565b8181036080830152611c1c8189611b53565b9050611c2b60a0830188611ae4565b611c3860c0830187611ae4565b611c4560e0830186611bbe565b611c53610100830185611bbe565b611c61610120830184611bbe565b9b9a5050505050505050505050565b600061010082019050611c86600083018b611ae4565b611c93602083018a611ae4565b611ca06040830189611bbe565b611cad6060830188611bbe565b8181036080830152611cbf8187611b53565b905081810360a0830152611cd38186611b53565b905081810360c0830152611ce78185611b53565b905081810360e0830152611cfb8184611b53565b90509998505050505050505050565b611d1381611bac565b8114611d1e57600080fd5b50565b600081359050611d3081611d0a565b92915050565b600080fd5b600080fd5b7f4e487b7100000000000000000000000000000000000000000000000000000000600052604160045260246000fd5b611d7882611b42565b810181811067ffffffffffffffff82111715611d9757611d96611d40565b5b80604052505050565b6000611daa611a2d565b9050611db68282611d6f565b919050565b600067ffffffffffffffff821115611dd657611dd5611d40565b5b611ddf82611b42565b9050602081019050919050565b82818337600083830152505050565b6000611e0e611e0984611dbb565b611da0565b905082815260208101848484011115611e2a57611e29611d3b565b5b611e35848285611dec565b509392505050565b600082601f830112611e5257611e51611d36565b5b8135611e62848260208601611dfb565b91505092915050565b600080600080600080600060e0888a031215611e8a57611e89611a37565b5b6000611e988a828b01611a62565b9750506020611ea98a828b01611d21565b965050604088013567ffffffffffffffff811115611eca57611ec9611a3c565b5b611ed68a828b01611e3d565b955050606088013567ffffffffffffffff811115611ef757611ef6611a3c565b5b611f038a828b01611e3d565b945050608088013567ffffffffffffffff811115611f2457611f23611a3c565b5b611f308a828b01611e3d565b93505060a088013567ffffffffffffffff811115611f5157611f50611a3c565b5b611f5d8a828b01611e3d565b92505060c088013567ffffffffffffffff811115611f7e57611f7d611a3c565b5b611f8a8a828b01611e3d565b91505092959891949750929550565b7f4e487b7100000000000000000000000000000000000000000000000000000000600052602160045260246000fd5b7f546865206974656d207374617465206973206e6f7420275061636b6564272000600082015250565b6000611ffe601f83611afe565b915061200982611fc8565b602082019050919050565b6000602082019050818103600083015261202d81611ff1565b9050919050565b60006020820190506120496000830184611ae4565b92915050565b7f546865206974656d207374617465206973206e6f74202748617276657374656460008201527f2720000000000000000000000000000000000000000000000000000000000000602082015250565b60006120ab602283611afe565b91506120b68261204f565b604082019050919050565b600060208201905081810360008301526120da8161209e565b9050919050565b7f4e487b7100000000000000000000000000000000000000000000000000000000600052602260045260246000fd5b6000600282049050600182168061212857607f821691505b6020821081141561213c5761213b6120e1565b5b50919050565b7f546865206974656d207374617465206973206e6f74202750726f63657373656460008201527f2720000000000000000000000000000000000000000000000000000000000000602082015250565b600061219e602283611afe565b91506121a982612142565b604082019050919050565b600060208201905081810360008301526121cd81612191565b9050919050565b60006040820190506121e96000830185611ae4565b6121f66020830184611ae4565b9392505050565b7f546865206974656d207374617465206973206e6f742027536869707065642720600082015250565b6000612233602083611afe565b915061223e826121fd565b602082019050919050565b6000602082019050818103600083015261226281612226565b9050919050565b7f4e487b7100000000000000000000000000000000000000000000000000000000600052601160045260246000fd5b60006122a382611a41565b91506122ae83611a41565b9250827fffffffffffffffffffffffffffffffffffffffffffffffffffffffffffffffff038211156122e3576122e2612269565b5b828201905092915050565b7f546865206974656d207374617465206973206e6f74202752656365697665642760008201527f2000000000000000000000000000000000000000000000000000000000000000602082015250565b600061234a602183611afe565b9150612355826122ee565b604082019050919050565b600060208201905081810360008301526123798161233d565b9050919050565b7f546865206974656d207374617465206973206e6f742027466f7253616c652720600082015250565b60006123b6602083611afe565b91506123c182612380565b602082019050919050565b600060208201905081810360008301526123e5816123a9565b9050919050565b600081905092915050565b50565b60006124076000836123ec565b9150612412826123f7565b600082019050919050565b6000612428826123fa565b9150819050919050565b7f5472616e73666572206661696c65640000000000000000000000000000000000600082015250565b6000612468600f83611afe565b915061247382612432565b602082019050919050565b600060208201905081810360008301526124978161245b565b9050919050565b60006124a982611a41565b91506124b483611a41565b9250828210156124c7576124c6612269565b5b828203905092915050565b7f546865206974656d207374617465206973206e6f742027536f6c642720000000600082015250565b6000612508601d83611afe565b9150612513826124d2565b602082019050919050565b60006020820190508181036000830152612537816124fb565b905091905056fea2646970667358221220afb2069186f4760135617ab88b9b8944b3f142227c58dc3bc096ef0039581dad64736f6c634300080b0033",
  "immutableReferences": {},
  "source": "// SPDX-License-Identifier: MIT\npragma solidity ^0.8.0;\n// Define a contract 'Supplychain'\ncontract SupplyChain {\n\n  // *** TERMINOLOGY ***\n  // - Viticulture = grape growing and cultivating process\n  // - Vinification = Winemaking process\n  // - Elevage = Barrel ageing process\n  // - Vigneron = a person who cultivates grapes for winemaking\n  // - Vineyard = plantation of grape-bearing vines for winemaking \n\n\n  // Define 'owner'\n  address owner;\n\n  // Define a variable called 'upc' for Universal Product Code (UPC)\n  uint  upc;\n\n  // Define a variable called 'sku' for Stock Keeping Unit (SKU)\n  uint  sku;\n\n  // Define enum 'State' with the following values:\n  enum State \n  { \n    Viticultured, // 0\n    Vinified,     // 1\n    Elevaged,     // 2\n    Packed,       // 3\n    ForSale,      // 4\n    Sold,         // 5\n    Shipped,      // 6\n    Received,     // 7\n    Purchased     // 8\n    }\n\n  State constant defaultState = State.Viticultured;\n\n  // Define a struct 'Item' with the following fields:\n  struct Item {\n    uint    sku;  // Stock Keeping Unit (SKU)\n    uint    upc; // Universal Product Code (UPC), generated by the vigneron, goes on the package, can be verified by the Consumer\n    address ownerID;  // Ethereum address of the current owner as the product moves through 8 stages\n    address originVigneronID; // Ethereum address of the Vigneron\n    string  originVineyardName; // Vineyard Name\n    string  originVineyardInformation;  // Vineyard Information\n    string  originVineyardLatitude; // Vineyard Latitude\n    string  originVineyardLongitude;  // Vineyard Longitude\n    uint    productID;  // Product ID potentially a combination of upc + sku\n    uint256 productAge; // Age of the wine \n    string  productNotes; // Product Notes\n    uint    productPrice; // Product Price\n    State   itemState;  // Product State as represented in the enum above\n    address distributorID;  // Ethereum address of the Distributor\n    address retailerID; // Ethereum address of the Retailer\n    address consumerID; // Ethereum address of the Consumer\n  }\n\n  // Define a public mapping 'items' that maps the UPC to an Item.\n  mapping (uint => Item) items;\n\n  // Define a public mapping 'itemsHistory' that maps the UPC to an array of TxHash, \n  // that track its journey through the supply chain -- to be sent from DApp.\n  mapping (uint => string[]) itemsHistory;\n\n  // Define 8 events with the same 8 state values and accept 'upc' as input argument\n  event Viticultured(uint upc); // Viticulture = grape growing and cultivating process\n  event Vinified(uint upc); // Vinification = Winemaking process\n  event Elevaged(uint upc, uint age); // Elevage = Barrel Ageing process\n  event Packed(uint upc);\n  event ForSale(uint upc);\n  event Sold(uint upc);\n  event Shipped(uint upc);\n  event Received(uint upc);\n  event Purchased(uint upc);\n\n  // Define a modifer that checks to see if msg.sender == owner of the contract\n  modifier onlyOwner() {\n    require(msg.sender == owner);\n    _;\n  }\n\n  // Define a modifer that verifies the Caller\n  modifier verifyCaller (address _address) {\n    require(msg.sender == _address); \n    _;\n  }\n\n  // Define a modifier that checks if the paid amount is sufficient to cover the price\n  modifier paidEnough(uint _price) { \n    require(msg.value >= _price); \n    _;\n  }\n  \n  // Define a modifier that checks the price and refunds the remaining balance\n  modifier checkValue(uint _upc) {\n    _;\n    uint _price = items[_upc].productPrice;\n    uint amountToReturn = msg.value - _price;\n    address consumer = items[_upc].consumerID;\n    payable(consumer).transfer(amountToReturn);\n  }\n\n  // Define a modifier that checks if an item.state of a upc is Harvested\n  modifier viticultured(uint _upc) {\n    require(items[_upc].itemState == State.Viticultured, \"The item state is not 'Harvested' \");\n    _;\n  }\n\n  // Define a modifier that checks if an item.state of a upc is Processed\n  modifier vinified(uint _upc) {\n    require(items[_upc].itemState == State.Vinified, \"The item state is not 'Processed' \");\n    _;\n  }\n\n  modifier elevaged(uint _upc) {\n    require(items[_upc].itemState == State.Elevaged, \"The item state is not 'Processed' \");\n    _;\n  }\n  \n  // Define a modifier that checks if an item.state of a upc is Packed\n  modifier packed(uint _upc) {\n    require(items[_upc].itemState == State.Packed, \"The item state is not 'Packed' \");\n    _;\n  }\n\n  // Define a modifier that checks if an item.state of a upc is ForSale\n  modifier forSale(uint _upc) {\n    require(items[_upc].itemState == State.ForSale, \"The item state is not 'ForSale' \");\n    _;\n  }\n\n  // Define a modifier that checks if an item.state of a upc is Sold\n  modifier sold(uint _upc) {\n    require(items[_upc].itemState == State.Sold, \"The item state is not 'Sold' \");\n    _;\n  }\n  \n  // Define a modifier that checks if an item.state of a upc is Shipped\n  modifier shipped(uint _upc) {\n    require(items[_upc].itemState == State.Shipped, \"The item state is not 'Shipped' \");\n    _;\n  }\n\n  // Define a modifier that checks if an item.state of a upc is Received\n  modifier received(uint _upc) {\n    require(items[_upc].itemState == State.Received, \"The item state is not 'Received' \");\n    _;\n  }\n\n  // Define a modifier that checks if an item.state of a upc is Purchased\n  modifier purchased(uint _upc) {\n    require(items[_upc].itemState == State.Purchased, \"The item state is not 'Purchased' \");\n    _;\n  }\n\n  // In the constructor set 'owner' to the address that instantiated the contract\n  // and set 'sku' to 1\n  // and set 'upc' to 1\n  constructor() payable {\n    owner = msg.sender;\n    sku = 1;\n    upc = 1;\n  }\n\n  // Define a function 'kill' if required\n  function kill() public {\n    if (msg.sender == owner) {\n      selfdestruct(payable(owner));\n    }\n  }\n\n  // Define a function 'vinicultureItem' that allows a vigneron to mark an item 'vinicultured'\n  function viticultureItem(uint _upc, \n                       address _originVigneronID, \n                       string memory _originVineyardName, \n                       string memory _originVineyardInformation, \n                       string  memory _originVineyardLatitude, \n                       string  memory _originVineyardLongitude, \n                       string  memory _productNotes) \n  public {\n    // Add the new item as part of Harvest\n    uint256 _productID = sku + _upc;\n\n    items[_upc]= Item({sku: sku, \n                       upc: _upc,\n                       ownerID: _originVigneronID,\n                       originVigneronID: _originVigneronID,\n                       originVineyardName: _originVineyardName,\n                       originVineyardInformation: _originVineyardInformation,  \n                       originVineyardLatitude: _originVineyardLatitude,\n                       originVineyardLongitude: _originVineyardLongitude,\n                       productID: _productID,\n                       productAge: 0, \n                       productNotes: _productNotes,\n                       productPrice: 0,\n                       itemState: State.Viticultured,\n                       distributorID: address(0),  \n                       retailerID: address(0),\n                       consumerID: address(0)\n                       });\n    \n    // Increment sku\n    sku = sku + 1;\n    // Emit the appropriate event\n    emit Viticultured(_upc);\n    \n  }\n\n  // Define a function 'vinifiedtItem' that allows a vigneron to mark an item 'Vinified'\n  function vinifyItem(uint _upc) public viticultured(_upc) verifyCaller(msg.sender){\n    // Update the item's State\n    items[_upc].itemState = State.Vinified;\n    // Emit the appropriate event\n    emit Vinified(_upc);\n    \n  }\n\n  // Define a function 'elevageItem' that allows a vigneron to mark an item 'Elevaged'\n  function elevageItem(uint _upc, uint256 _age) public vinified(_upc) verifyCaller(msg.sender){\n    // Update the item's State\n    items[_upc].itemState = State.Elevaged;\n    items[_upc].productAge = _age;\n    // Emit the appropriate event\n    emit Elevaged(_upc, _age);\n    \n  }\n\n  // Define a function 'packItem' that allows a vigneron to mark an item 'Packed'\n  function packItem(uint _upc) public elevaged(_upc) verifyCaller(msg.sender){\n    // Update the item's State\n    items[_upc].itemState = State.Packed;\n    // Emit the appropriate event\n    emit Packed(_upc);\n  }\n\n  // Define a function 'sellItem' that allows a vigneron to mark an item 'ForSale'\n  function sellItem(uint _upc, uint _price) public packed(_upc) verifyCaller(msg.sender){\n    // Update the appropriate fields\n    items[_upc].itemState = State.ForSale;\n    items[_upc].productPrice = _price;\n    // Emit the appropriate event\n    emit ForSale(_upc);\n  }\n\n  // Define a function 'buyItem' that allows the disributor to mark an item 'Sold'\n  // Use the above defined modifiers to check if the item is available for sale, if the buyer has paid enough, \n  // and any excess ether sent is refunded back to the buyer\n  function buyItem(uint _upc) public payable forSale(_upc) paidEnough(msg.value) checkValue(upc) {\n    // Update the appropriate fields - ownerID, distributorID, itemState\n    items[_upc].ownerID = msg.sender;\n    items[_upc].distributorID = msg.sender;\n    items[_upc].itemState = State.Sold;\n\n    address vigneronAdd = items[upc].originVigneronID;\n    uint256 amount = items[_upc].productPrice;\n\n    // Transfer money to vigneron\n    (bool success, ) = payable(vigneronAdd).call{value: amount}(\"\");\n    require(success, \"Transfer failed\");\n    // emit the appropriate event\n    emit Sold(_upc);\n  }\n\n  // Define a function 'shipItem' that allows the distributor to mark an item 'Shipped'\n  // Use the above modifers to check if the item is sold\n  function shipItem(uint _upc) public sold(_upc) verifyCaller(msg.sender){\n    // Update the appropriate fields\n    items[_upc].itemState = State.Shipped;\n    // Emit the appropriate event\n    emit Shipped(_upc);\n    \n  }\n\n  // Define a function 'receiveItem' that allows the retailer to mark an item 'Received'\n  // Use the above modifiers to check if the item is shipped\n  function receiveItem(uint _upc) public shipped(_upc) \n    // Access Control List enforced by calling Smart Contract / DApp\n    {\n    // Update the appropriate fields - ownerID, retailerID, itemState\n    items[_upc].ownerID = msg.sender;\n    items[_upc].retailerID = msg.sender;\n    items[_upc].itemState = State.Received;\n    // Emit the appropriate event\n    emit Received(_upc);\n  }\n\n  // Define a function 'purchaseItem' that allows the consumer to mark an item 'Purchased'\n  // Use the above modifiers to check if the item is received\n  function purchaseItem(uint _upc) public received(_upc)\n    // Access Control List enforced by calling Smart Contract / DApp\n    {\n    // Update the appropriate fields - ownerID, consumerID, itemState\n    items[_upc].ownerID = msg.sender;\n    items[_upc].consumerID = msg.sender;\n    items[_upc].itemState = State.Purchased;\n    // Emit the appropriate event\n    emit Purchased(_upc);\n    \n  }\n\n  // Define a function 'fetchItemBufferOne' that fetches the data\n  function fetchItemBufferOne(uint _upc) public view returns \n  ( uint    itemSKU,\n    uint    itemUPC,\n    address ownerID,\n    address originVigneronID,\n    string  memory originVineyardName,\n    string  memory originVineyardInformation,\n    string  memory originVineyardLatitude,\n    string  memory originVineyardLongitude ) \n  {\n  // Assign values to the 8 parameters\n  itemSKU = items[_upc].sku;\n  itemUPC = _upc;\n  ownerID = items[_upc].ownerID;\n  originVigneronID = items[_upc].originVigneronID;\n  originVineyardName = items[_upc].originVineyardName;\n  originVineyardInformation = items[_upc].originVineyardInformation;\n  originVineyardLatitude = items[_upc].originVineyardLatitude;\n  originVineyardLongitude = items[_upc].originVineyardLongitude;\n\n    \n  return ( itemSKU,\n           itemUPC,\n           ownerID,\n           originVigneronID,\n           originVineyardName,\n           originVineyardInformation,\n           originVineyardLatitude,\n           originVineyardLongitude );\n  }\n\n  // Define a function 'fetchItemBufferTwo' that fetches the data\n  function fetchItemBufferTwo(uint _upc) public view returns \n  ( uint    itemSKU,\n    uint    itemUPC,\n    uint    productID,\n    uint    productAge,\n    string  memory productNotes,\n    uint    productPrice,\n    uint    itemState,\n    address distributorID,\n    address retailerID,\n    address consumerID ) \n  {\n    // Assign values to the 9 parameters\n  itemSKU = items[_upc].sku;\n  itemUPC = _upc;\n  productID = items[_upc].productID;\n  productAge = items[_upc].productAge;\n  productNotes = items[_upc].productNotes;\n  productPrice = items[_upc].productPrice;\n  itemState = uint256(items[_upc].itemState);\n  distributorID = items[_upc].distributorID;\n  retailerID = items[_upc].retailerID;\n  consumerID = items[_upc].consumerID;\n    \n  return \n  ( itemSKU,\n    itemUPC,\n    productID,\n    productAge,\n    productNotes,\n    productPrice,\n    itemState,\n    distributorID,\n    retailerID,\n    consumerID );\n  }\n\n}\n",
  "sourcePath": "/Users/OllieFrancis/Documents/UDACITYprojects/WineSupplyChainDApp/contracts/wineBase/SupplyChain.sol",
  "compiler": {
    "name": "solc",
    "version": "0.8.11+commit.d7f03943.Emscripten.clang"
  },
  "schemaVersion": "3.4.4",
  "updatedAt": "2022-01-13T17:05:16.048Z",
  "devdoc": {
    "kind": "dev",
    "methods": {},
    "version": 1
  },
  "userdoc": {
    "kind": "user",
    "methods": {},
    "version": 1
  }
}