{
  "contractName": "SupplyChain",
  "abi": [
    {
      "inputs": [],
      "stateMutability": "payable",
      "type": "constructor",
      "payable": true
    },
    {
      "anonymous": false,
      "inputs": [
        {
          "indexed": true,
          "internalType": "address",
          "name": "account",
          "type": "address"
        }
      ],
      "name": "ConsumerAdded",
      "type": "event"
    },
    {
      "anonymous": false,
      "inputs": [
        {
          "indexed": true,
          "internalType": "address",
          "name": "account",
          "type": "address"
        }
      ],
      "name": "ConsumerRemoved",
      "type": "event"
    },
    {
      "anonymous": false,
      "inputs": [
        {
          "indexed": true,
          "internalType": "address",
          "name": "account",
          "type": "address"
        }
      ],
      "name": "DistributorAdded",
      "type": "event"
    },
    {
      "anonymous": false,
      "inputs": [
        {
          "indexed": true,
          "internalType": "address",
          "name": "account",
          "type": "address"
        }
      ],
      "name": "DistributorRemoved",
      "type": "event"
    },
    {
      "anonymous": false,
      "inputs": [
        {
          "indexed": false,
          "internalType": "uint256",
          "name": "upc",
          "type": "uint256"
        },
        {
          "indexed": false,
          "internalType": "uint256",
          "name": "age",
          "type": "uint256"
        }
      ],
      "name": "Elevaged",
      "type": "event"
    },
    {
      "anonymous": false,
      "inputs": [
        {
          "indexed": false,
          "internalType": "uint256",
          "name": "upc",
          "type": "uint256"
        }
      ],
      "name": "ForSale",
      "type": "event"
    },
    {
      "anonymous": false,
      "inputs": [
        {
          "indexed": false,
          "internalType": "uint256",
          "name": "upc",
          "type": "uint256"
        }
      ],
      "name": "Packed",
      "type": "event"
    },
    {
      "anonymous": false,
      "inputs": [
        {
          "indexed": false,
          "internalType": "uint256",
          "name": "upc",
          "type": "uint256"
        }
      ],
      "name": "Purchased",
      "type": "event"
    },
    {
      "anonymous": false,
      "inputs": [
        {
          "indexed": false,
          "internalType": "uint256",
          "name": "upc",
          "type": "uint256"
        }
      ],
      "name": "Received",
      "type": "event"
    },
    {
      "anonymous": false,
      "inputs": [
        {
          "indexed": true,
          "internalType": "address",
          "name": "account",
          "type": "address"
        }
      ],
      "name": "RetailerAdded",
      "type": "event"
    },
    {
      "anonymous": false,
      "inputs": [
        {
          "indexed": true,
          "internalType": "address",
          "name": "account",
          "type": "address"
        }
      ],
      "name": "RetailerRemoved",
      "type": "event"
    },
    {
      "anonymous": false,
      "inputs": [
        {
          "indexed": false,
          "internalType": "uint256",
          "name": "upc",
          "type": "uint256"
        }
      ],
      "name": "Shipped",
      "type": "event"
    },
    {
      "anonymous": false,
      "inputs": [
        {
          "indexed": false,
          "internalType": "uint256",
          "name": "upc",
          "type": "uint256"
        }
      ],
      "name": "Sold",
      "type": "event"
    },
    {
      "anonymous": false,
      "inputs": [
        {
          "indexed": true,
          "internalType": "address",
          "name": "oldOwner",
          "type": "address"
        },
        {
          "indexed": true,
          "internalType": "address",
          "name": "newOwner",
          "type": "address"
        }
      ],
      "name": "TransferOwnership",
      "type": "event"
    },
    {
      "anonymous": false,
      "inputs": [
        {
          "indexed": true,
          "internalType": "address",
          "name": "account",
          "type": "address"
        }
      ],
      "name": "VigneronAdded",
      "type": "event"
    },
    {
      "anonymous": false,
      "inputs": [
        {
          "indexed": true,
          "internalType": "address",
          "name": "account",
          "type": "address"
        }
      ],
      "name": "VigneronRemoved",
      "type": "event"
    },
    {
      "anonymous": false,
      "inputs": [
        {
          "indexed": false,
          "internalType": "uint256",
          "name": "upc",
          "type": "uint256"
        }
      ],
      "name": "Vinified",
      "type": "event"
    },
    {
      "anonymous": false,
      "inputs": [
        {
          "indexed": false,
          "internalType": "uint256",
          "name": "upc",
          "type": "uint256"
        }
      ],
      "name": "Viticultured",
      "type": "event"
    },
    {
      "inputs": [
        {
          "internalType": "address",
          "name": "account",
          "type": "address"
        }
      ],
      "name": "addConsumer",
      "outputs": [],
      "stateMutability": "nonpayable",
      "type": "function"
    },
    {
      "inputs": [
        {
          "internalType": "address",
          "name": "account",
          "type": "address"
        }
      ],
      "name": "addDistributor",
      "outputs": [],
      "stateMutability": "nonpayable",
      "type": "function"
    },
    {
      "inputs": [
        {
          "internalType": "address",
          "name": "account",
          "type": "address"
        }
      ],
      "name": "addRetailer",
      "outputs": [],
      "stateMutability": "nonpayable",
      "type": "function"
    },
    {
      "inputs": [
        {
          "internalType": "address",
          "name": "account",
          "type": "address"
        }
      ],
      "name": "addVigneron",
      "outputs": [],
      "stateMutability": "nonpayable",
      "type": "function"
    },
    {
      "inputs": [
        {
          "internalType": "address",
          "name": "account",
          "type": "address"
        }
      ],
      "name": "isConsumer",
      "outputs": [
        {
          "internalType": "bool",
          "name": "",
          "type": "bool"
        }
      ],
      "stateMutability": "view",
      "type": "function",
      "constant": true
    },
    {
      "inputs": [
        {
          "internalType": "address",
          "name": "account",
          "type": "address"
        }
      ],
      "name": "isDistributor",
      "outputs": [
        {
          "internalType": "bool",
          "name": "",
          "type": "bool"
        }
      ],
      "stateMutability": "view",
      "type": "function",
      "constant": true
    },
    {
      "inputs": [],
      "name": "isOwner",
      "outputs": [
        {
          "internalType": "bool",
          "name": "",
          "type": "bool"
        }
      ],
      "stateMutability": "view",
      "type": "function",
      "constant": true
    },
    {
      "inputs": [
        {
          "internalType": "address",
          "name": "account",
          "type": "address"
        }
      ],
      "name": "isRetailer",
      "outputs": [
        {
          "internalType": "bool",
          "name": "",
          "type": "bool"
        }
      ],
      "stateMutability": "view",
      "type": "function",
      "constant": true
    },
    {
      "inputs": [
        {
          "internalType": "address",
          "name": "account",
          "type": "address"
        }
      ],
      "name": "isVigneron",
      "outputs": [
        {
          "internalType": "bool",
          "name": "",
          "type": "bool"
        }
      ],
      "stateMutability": "view",
      "type": "function",
      "constant": true
    },
    {
      "inputs": [],
      "name": "owner",
      "outputs": [
        {
          "internalType": "address",
          "name": "",
          "type": "address"
        }
      ],
      "stateMutability": "view",
      "type": "function",
      "constant": true
    },
    {
      "inputs": [],
      "name": "renounceConsumer",
      "outputs": [],
      "stateMutability": "nonpayable",
      "type": "function"
    },
    {
      "inputs": [],
      "name": "renounceDistributor",
      "outputs": [],
      "stateMutability": "nonpayable",
      "type": "function"
    },
    {
      "inputs": [],
      "name": "renounceOwnership",
      "outputs": [],
      "stateMutability": "nonpayable",
      "type": "function"
    },
    {
      "inputs": [],
      "name": "renounceRetailer",
      "outputs": [],
      "stateMutability": "nonpayable",
      "type": "function"
    },
    {
      "inputs": [],
      "name": "renounceVigneron",
      "outputs": [],
      "stateMutability": "nonpayable",
      "type": "function"
    },
    {
      "inputs": [
        {
          "internalType": "address",
          "name": "newOwner",
          "type": "address"
        }
      ],
      "name": "transferOwnership",
      "outputs": [],
      "stateMutability": "nonpayable",
      "type": "function"
    },
    {
      "inputs": [],
      "name": "kill",
      "outputs": [],
      "stateMutability": "nonpayable",
      "type": "function"
    },
    {
      "inputs": [
        {
          "internalType": "uint256",
          "name": "_upc",
          "type": "uint256"
        },
        {
          "internalType": "address",
          "name": "_originVigneronID",
          "type": "address"
        },
        {
          "internalType": "string",
          "name": "_originVineyardName",
          "type": "string"
        },
        {
          "internalType": "string",
          "name": "_originVineyardInformation",
          "type": "string"
        },
        {
          "internalType": "string",
          "name": "_originVineyardLatitude",
          "type": "string"
        },
        {
          "internalType": "string",
          "name": "_originVineyardLongitude",
          "type": "string"
        },
        {
          "internalType": "string",
          "name": "_productNotes",
          "type": "string"
        }
      ],
      "name": "viticultureItem",
      "outputs": [],
      "stateMutability": "nonpayable",
      "type": "function"
    },
    {
      "inputs": [
        {
          "internalType": "uint256",
          "name": "_upc",
          "type": "uint256"
        }
      ],
      "name": "vinifyItem",
      "outputs": [],
      "stateMutability": "nonpayable",
      "type": "function"
    },
    {
      "inputs": [
        {
          "internalType": "uint256",
          "name": "_upc",
          "type": "uint256"
        },
        {
          "internalType": "uint256",
          "name": "_age",
          "type": "uint256"
        }
      ],
      "name": "elevageItem",
      "outputs": [],
      "stateMutability": "nonpayable",
      "type": "function"
    },
    {
      "inputs": [
        {
          "internalType": "uint256",
          "name": "_upc",
          "type": "uint256"
        }
      ],
      "name": "packItem",
      "outputs": [],
      "stateMutability": "nonpayable",
      "type": "function"
    },
    {
      "inputs": [
        {
          "internalType": "uint256",
          "name": "_upc",
          "type": "uint256"
        },
        {
          "internalType": "uint256",
          "name": "_price",
          "type": "uint256"
        }
      ],
      "name": "sellItem",
      "outputs": [],
      "stateMutability": "nonpayable",
      "type": "function"
    },
    {
      "inputs": [
        {
          "internalType": "uint256",
          "name": "_upc",
          "type": "uint256"
        }
      ],
      "name": "buyItem",
      "outputs": [],
      "stateMutability": "payable",
      "type": "function",
      "payable": true
    },
    {
      "inputs": [
        {
          "internalType": "uint256",
          "name": "_upc",
          "type": "uint256"
        }
      ],
      "name": "shipItem",
      "outputs": [],
      "stateMutability": "nonpayable",
      "type": "function"
    },
    {
      "inputs": [
        {
          "internalType": "uint256",
          "name": "_upc",
          "type": "uint256"
        }
      ],
      "name": "receiveItem",
      "outputs": [],
      "stateMutability": "nonpayable",
      "type": "function"
    },
    {
      "inputs": [
        {
          "internalType": "uint256",
          "name": "_upc",
          "type": "uint256"
        }
      ],
      "name": "purchaseItem",
      "outputs": [],
      "stateMutability": "payable",
      "type": "function",
      "payable": true
    },
    {
      "inputs": [
        {
          "internalType": "uint256",
          "name": "_upc",
          "type": "uint256"
        }
      ],
      "name": "fetchItemBufferOne",
      "outputs": [
        {
          "internalType": "uint256",
          "name": "itemSKU",
          "type": "uint256"
        },
        {
          "internalType": "uint256",
          "name": "itemUPC",
          "type": "uint256"
        },
        {
          "internalType": "address",
          "name": "ownerID",
          "type": "address"
        },
        {
          "internalType": "address",
          "name": "originVigneronID",
          "type": "address"
        },
        {
          "internalType": "string",
          "name": "originVineyardName",
          "type": "string"
        },
        {
          "internalType": "string",
          "name": "originVineyardInformation",
          "type": "string"
        },
        {
          "internalType": "string",
          "name": "originVineyardLatitude",
          "type": "string"
        },
        {
          "internalType": "string",
          "name": "originVineyardLongitude",
          "type": "string"
        },
        {
          "internalType": "bool",
          "name": "initialised",
          "type": "bool"
        }
      ],
      "stateMutability": "view",
      "type": "function",
      "constant": true
    },
    {
      "inputs": [
        {
          "internalType": "uint256",
          "name": "_upc",
          "type": "uint256"
        }
      ],
      "name": "fetchItemBufferTwo",
      "outputs": [
        {
          "internalType": "uint256",
          "name": "itemSKU",
          "type": "uint256"
        },
        {
          "internalType": "uint256",
          "name": "itemUPC",
          "type": "uint256"
        },
        {
          "internalType": "uint256",
          "name": "productID",
          "type": "uint256"
        },
        {
          "internalType": "uint256",
          "name": "productAge",
          "type": "uint256"
        },
        {
          "internalType": "string",
          "name": "productNotes",
          "type": "string"
        },
        {
          "internalType": "uint256",
          "name": "productPrice",
          "type": "uint256"
        },
        {
          "internalType": "uint256",
          "name": "itemState",
          "type": "uint256"
        },
        {
          "internalType": "address",
          "name": "distributorID",
          "type": "address"
        },
        {
          "internalType": "address",
          "name": "retailerID",
          "type": "address"
        },
        {
          "internalType": "address",
          "name": "consumerID",
          "type": "address"
        }
      ],
      "stateMutability": "view",
      "type": "function",
      "constant": true
    }
  ],
  "bytecode": "0x6080604052336000806101000a81548173ffffffffffffffffffffffffffffffffffffffff021916908373ffffffffffffffffffffffffffffffffffffffff16021790555060008054906101000a900473ffffffffffffffffffffffffffffffffffffffff1673ffffffffffffffffffffffffffffffffffffffff16600073ffffffffffffffffffffffffffffffffffffffff167f5c486528ec3e3f0ea91181cff8116f02bfa350e03b8b6f12e00765adbb5af85c60405160405180910390a3620000d0336200015a60201b60201c565b620000e133620001bb60201b60201c565b620000f2336200021c60201b60201c565b62000103336200027d60201b60201c565b33600560006101000a81548173ffffffffffffffffffffffffffffffffffffffff021916908373ffffffffffffffffffffffffffffffffffffffff16021790555060016007819055506001600681905550620006a8565b62000175816001620002de60201b620025771790919060201c565b8073ffffffffffffffffffffffffffffffffffffffff167f28b26e7a3d20aedbc5f8f2ebf7da671c0491723a2b78f47a097b0e46dee0714260405160405180910390a250565b620001d6816002620002de60201b620025771790919060201c565b8073ffffffffffffffffffffffffffffffffffffffff167fddbf200aa634dc3fb81cfd68583dd1040d1c751d335e1d86b631bde3e977fea860405160405180910390a250565b62000237816003620002de60201b620025771790919060201c565b8073ffffffffffffffffffffffffffffffffffffffff167f71ae26cad02663e3d92efd6ec56031a80d74a20c0ab4183faa8bf262261c9baa60405160405180910390a250565b62000298816004620002de60201b620025771790919060201c565b8073ffffffffffffffffffffffffffffffffffffffff167fe668ee700a4c8d94f70287bcb6a01a069f95ca98b84b715031020ddf564a56f660405160405180910390a250565b600073ffffffffffffffffffffffffffffffffffffffff168173ffffffffffffffffffffffffffffffffffffffff16141562000351576040517f08c379a0000000000000000000000000000000000000000000000000000000008152600401620003489062000556565b60405180910390fd5b6200036382826200040460201b60201c565b15620003a6576040517f08c379a00000000000000000000000000000000000000000000000000000000081526004016200039d90620005ee565b60405180910390fd5b60018260000160008373ffffffffffffffffffffffffffffffffffffffff1673ffffffffffffffffffffffffffffffffffffffff16815260200190815260200160002060006101000a81548160ff0219169083151502179055505050565b60008073ffffffffffffffffffffffffffffffffffffffff168273ffffffffffffffffffffffffffffffffffffffff16141562000478576040517f08c379a00000000000000000000000000000000000000000000000000000000081526004016200046f9062000686565b60405180910390fd5b8260000160008373ffffffffffffffffffffffffffffffffffffffff1673ffffffffffffffffffffffffffffffffffffffff16815260200190815260200160002060009054906101000a900460ff16905092915050565b600082825260208201905092915050565b7f526f6c65732e736f6c2f6164643a204d75737420626520612076616c6964206160008201527f6464726573730000000000000000000000000000000000000000000000000000602082015250565b60006200053e602683620004cf565b91506200054b82620004e0565b604082019050919050565b6000602082019050818103600083015262000571816200052f565b9050919050565b7f596f752061726520616c726561647920616464656420746f207468697320726f60008201527f6c65000000000000000000000000000000000000000000000000000000000000602082015250565b6000620005d6602283620004cf565b9150620005e38262000578565b604082019050919050565b600060208201905081810360008301526200060981620005c7565b9050919050565b7f526f6c65732e736f6c2f6861733a204d75737420626520612076616c6964206160008201527f6464726573730000000000000000000000000000000000000000000000000000602082015250565b60006200066e602683620004cf565b91506200067b8262000610565b604082019050919050565b60006020820190508181036000830152620006a1816200065f565b9050919050565b613f6e80620006b86000396000f3fe6080604052600436106101b75760003560e01c80638ec4f505116100ec578063cf47c8ea1161008a578063e7fb74c711610064578063e7fb74c7146105a8578063f2fde38b146105c4578063f30fc480146105ed578063f61c899a14610616576101b7565b8063cf47c8ea1461054c578063d38ea5bf14610575578063db0e6a2f14610591576101b7565b80639f53ff16116100c65780639f53ff1614610494578063a26be999146104bd578063b152e76e146104e6578063b86d2d7114610523576101b7565b80638ec4f505146104035780638f0c86fa1461042c5780638f32d59b14610469576101b7565b806366225ff91161015957806377c459131161013357806377c459131461033f5780637e6d8c7014610384578063834ff7391461039b5780638da5cb5b146103d8576101b7565b806366225ff9146102b9578063715018a6146102ff5780637250e22414610316576101b7565b8063546c477311610195578063546c4773146102255780635da09b881461024e57806361e6982d1461028b578063644241db146102a2576101b7565b8063112940f9146101bc5780632d923561146101e557806341c0e1b51461020e575b600080fd5b3480156101c857600080fd5b506101e360048036038101906101de9190612d80565b61063f565b005b3480156101f157600080fd5b5061020c60048036038101906102079190612de3565b610693565b005b34801561021a57600080fd5b50610223610836565b005b34801561023157600080fd5b5061024c60048036038101906102479190612e23565b6108c9565b005b34801561025a57600080fd5b5061027560048036038101906102709190612d80565b610a50565b6040516102829190612e6b565b60405180910390f35b34801561029757600080fd5b506102a0610a6d565b005b3480156102ae57600080fd5b506102b7610a78565b005b3480156102c557600080fd5b506102e060048036038101906102db9190612e23565b610a83565b6040516102f69a99989796959493929190612f3d565b60405180910390f35b34801561030b57600080fd5b50610314610c8b565b005b34801561032257600080fd5b5061033d60048036038101906103389190612d80565b610d90565b005b34801561034b57600080fd5b5061036660048036038101906103619190612e23565b610de4565b60405161037b99989796959493929190612fe0565b60405180910390f35b34801561039057600080fd5b50610399611137565b005b3480156103a757600080fd5b506103c260048036038101906103bd9190612d80565b611142565b6040516103cf9190612e6b565b60405180910390f35b3480156103e457600080fd5b506103ed61115f565b6040516103fa9190613089565b60405180910390f35b34801561040f57600080fd5b5061042a60048036038101906104259190612d80565b611188565b005b34801561043857600080fd5b50610453600480360381019061044e9190612d80565b6111dc565b6040516104609190612e6b565b60405180910390f35b34801561047557600080fd5b5061047e6111f9565b60405161048b9190612e6b565b60405180910390f35b3480156104a057600080fd5b506104bb60048036038101906104b69190612de3565b611250565b005b3480156104c957600080fd5b506104e460048036038101906104df9190612e23565b6113f5565b005b3480156104f257600080fd5b5061050d60048036038101906105089190612d80565b6115ce565b60405161051a9190612e6b565b60405180910390f35b34801561052f57600080fd5b5061054a60048036038101906105459190612d80565b6115eb565b005b34801561055857600080fd5b50610573600480360381019061056e91906131d9565b61163f565b005b61058f600480360381019061058a9190612e23565b611ae9565b005b34801561059d57600080fd5b506105a6611e7a565b005b6105c260048036038101906105bd9190612e23565b611e85565b005b3480156105d057600080fd5b506105eb60048036038101906105e69190612d80565b612216565b005b3480156105f957600080fd5b50610614600480360381019061060f9190612e23565b612269565b005b34801561062257600080fd5b5061063d60048036038101906106389190612e23565b6123f0565b005b61064833611142565b610687576040517f08c379a000000000000000000000000000000000000000000000000000000000815260040161067e90613379565b60405180910390fd5b6106908161268f565b50565b61069c336115ce565b6106db576040517f08c379a00000000000000000000000000000000000000000000000000000000081526004016106d29061340b565b60405180910390fd5b81600360088111156106f0576106ef61342b565b5b60086000838152602001908152602001600020600c0160009054906101000a900460ff1660088111156107265761072561342b565b5b14610766576040517f08c379a000000000000000000000000000000000000000000000000000000000815260040161075d906134a6565b60405180910390fd5b338073ffffffffffffffffffffffffffffffffffffffff163373ffffffffffffffffffffffffffffffffffffffff161461079f57600080fd5b600460086000868152602001908152602001600020600c0160006101000a81548160ff021916908360088111156107d9576107d861342b565b5b02179055508260086000868152602001908152602001600020600b01819055507fa96ae0fc3224ebd79eebfe54bd130cc9cb94416cddd1f2386115e00b725324688460405161082891906134c6565b60405180910390a150505050565b600560009054906101000a900473ffffffffffffffffffffffffffffffffffffffff1673ffffffffffffffffffffffffffffffffffffffff163373ffffffffffffffffffffffffffffffffffffffff1614156108c757600560009054906101000a900473ffffffffffffffffffffffffffffffffffffffff1673ffffffffffffffffffffffffffffffffffffffff16ff5b565b6108d2336115ce565b610911576040517f08c379a00000000000000000000000000000000000000000000000000000000081526004016109089061340b565b60405180910390fd5b80600060088111156109265761092561342b565b5b60086000838152602001908152602001600020600c0160009054906101000a900460ff16600881111561095c5761095b61342b565b5b1461099c576040517f08c379a000000000000000000000000000000000000000000000000000000000815260040161099390613553565b60405180910390fd5b338073ffffffffffffffffffffffffffffffffffffffff163373ffffffffffffffffffffffffffffffffffffffff16146109d557600080fd5b600160086000858152602001908152602001600020600c0160006101000a81548160ff02191690836008811115610a0f57610a0e61342b565b5b02179055507f7b498e50e374e27f88833db3180c3ba1b2a52b2872a74a345347829bd3ea2be083604051610a4391906134c6565b60405180910390a1505050565b6000610a668260036126e990919063ffffffff16565b9050919050565b610a76336127b1565b565b610a813361280b565b565b60008060008060606000806000806000600860008c81526020019081526020016000206000015499508a9850600860008c8152602001908152602001600020600801549750600860008c8152602001908152602001600020600901549650600860008c8152602001908152602001600020600a018054610b02906135a2565b80601f0160208091040260200160405190810160405280929190818152602001828054610b2e906135a2565b8015610b7b5780601f10610b5057610100808354040283529160200191610b7b565b820191906000526020600020905b815481529060010190602001808311610b5e57829003601f168201915b50505050509550600860008c8152602001908152602001600020600b01549450600860008c8152602001908152602001600020600c0160009054906101000a900460ff166008811115610bd157610bd061342b565b5b9350600860008c8152602001908152602001600020600c0160019054906101000a900473ffffffffffffffffffffffffffffffffffffffff169250600860008c8152602001908152602001600020600d0160009054906101000a900473ffffffffffffffffffffffffffffffffffffffff169150600860008c8152602001908152602001600020600e0160009054906101000a900473ffffffffffffffffffffffffffffffffffffffff1690509193959799509193959799565b610c936111f9565b610cd2576040517f08c379a0000000000000000000000000000000000000000000000000000000008152600401610cc990613646565b60405180910390fd5b600073ffffffffffffffffffffffffffffffffffffffff1660008054906101000a900473ffffffffffffffffffffffffffffffffffffffff1673ffffffffffffffffffffffffffffffffffffffff167f5c486528ec3e3f0ea91181cff8116f02bfa350e03b8b6f12e00765adbb5af85c60405160405180910390a360008060006101000a81548173ffffffffffffffffffffffffffffffffffffffff021916908373ffffffffffffffffffffffffffffffffffffffff160217905550565b610d99336111dc565b610dd8576040517f08c379a0000000000000000000000000000000000000000000000000000000008152600401610dcf906136d8565b60405180910390fd5b610de181612865565b50565b6000806000806060806060806000600860008b8152602001908152602001600020600001549850899750600860008b815260200190815260200160002060020160009054906101000a900473ffffffffffffffffffffffffffffffffffffffff169650600860008b815260200190815260200160002060030160009054906101000a900473ffffffffffffffffffffffffffffffffffffffff169550600860008b81526020019081526020016000206004018054610ea1906135a2565b80601f0160208091040260200160405190810160405280929190818152602001828054610ecd906135a2565b8015610f1a5780601f10610eef57610100808354040283529160200191610f1a565b820191906000526020600020905b815481529060010190602001808311610efd57829003601f168201915b50505050509450600860008b81526020019081526020016000206005018054610f42906135a2565b80601f0160208091040260200160405190810160405280929190818152602001828054610f6e906135a2565b8015610fbb5780601f10610f9057610100808354040283529160200191610fbb565b820191906000526020600020905b815481529060010190602001808311610f9e57829003601f168201915b50505050509350600860008b81526020019081526020016000206006018054610fe3906135a2565b80601f016020809104026020016040519081016040528092919081815260200182805461100f906135a2565b801561105c5780601f106110315761010080835404028352916020019161105c565b820191906000526020600020905b81548152906001019060200180831161103f57829003601f168201915b50505050509250600860008b81526020019081526020016000206007018054611084906135a2565b80601f01602080910402602001604051908101604052809291908181526020018280546110b0906135a2565b80156110fd5780601f106110d2576101008083540402835291602001916110fd565b820191906000526020600020905b8154815290600101906020018083116110e057829003601f168201915b50505050509150600860008b8152602001908152602001600020600e0160149054906101000a900460ff1690509193959799909294969850565b611140336128bf565b565b60006111588260016126e990919063ffffffff16565b9050919050565b60008060009054906101000a900473ffffffffffffffffffffffffffffffffffffffff16905090565b61119133610a50565b6111d0576040517f08c379a00000000000000000000000000000000000000000000000000000000081526004016111c79061376a565b60405180910390fd5b6111d981612919565b50565b60006111f28260026126e990919063ffffffff16565b9050919050565b60008060009054906101000a900473ffffffffffffffffffffffffffffffffffffffff1673ffffffffffffffffffffffffffffffffffffffff163373ffffffffffffffffffffffffffffffffffffffff1614905090565b611259336115ce565b611298576040517f08c379a000000000000000000000000000000000000000000000000000000000815260040161128f9061340b565b60405180910390fd5b81600160088111156112ad576112ac61342b565b5b60086000838152602001908152602001600020600c0160009054906101000a900460ff1660088111156112e3576112e261342b565b5b14611323576040517f08c379a000000000000000000000000000000000000000000000000000000000815260040161131a906137fc565b60405180910390fd5b338073ffffffffffffffffffffffffffffffffffffffff163373ffffffffffffffffffffffffffffffffffffffff161461135c57600080fd5b600260086000868152602001908152602001600020600c0160006101000a81548160ff021916908360088111156113965761139561342b565b5b02179055508260086000868152602001908152602001600020600901819055507f86a14a2a100b49b8de405c637c1d46f6a01e8599fe5075a570f215f6ab2835da84846040516113e792919061381c565b60405180910390a150505050565b6113fe33610a50565b61143d576040517f08c379a00000000000000000000000000000000000000000000000000000000081526004016114349061376a565b60405180910390fd5b80600660088111156114525761145161342b565b5b60086000838152602001908152602001600020600c0160009054906101000a900460ff1660088111156114885761148761342b565b5b146114c8576040517f08c379a00000000000000000000000000000000000000000000000000000000081526004016114bf90613891565b60405180910390fd5b6000600860008481526020019081526020016000209050338160020160006101000a81548173ffffffffffffffffffffffffffffffffffffffff021916908373ffffffffffffffffffffffffffffffffffffffff1602179055503381600d0160006101000a81548173ffffffffffffffffffffffffffffffffffffffff021916908373ffffffffffffffffffffffffffffffffffffffff160217905550600781600c0160006101000a81548160ff0219169083600881111561158d5761158c61342b565b5b02179055507fa8142743f8f70a4c26f3691cf4ed59718381fb2f18070ec52be1f1022d855557836040516115c191906134c6565b60405180910390a1505050565b60006115e48260046126e990919063ffffffff16565b9050919050565b6115f4336115ce565b611633576040517f08c379a000000000000000000000000000000000000000000000000000000000815260040161162a9061340b565b60405180910390fd5b61163c81612973565b50565b611648336115ce565b611687576040517f08c379a000000000000000000000000000000000000000000000000000000000815260040161167e9061340b565b60405180910390fd5b6000151560086000898152602001908152602001600020600e0160149054906101000a900460ff161515146116f1576040517f08c379a00000000000000000000000000000000000000000000000000000000081526004016116e8906138fd565b60405180910390fd5b600087600754611701919061394c565b905060405180610220016040528060075481526020018981526020018873ffffffffffffffffffffffffffffffffffffffff1681526020018873ffffffffffffffffffffffffffffffffffffffff16815260200187815260200186815260200185815260200184815260200182815260200160008152602001838152602001600081526020016000600881111561179b5761179a61342b565b5b8152602001600073ffffffffffffffffffffffffffffffffffffffff168152602001600073ffffffffffffffffffffffffffffffffffffffff168152602001600073ffffffffffffffffffffffffffffffffffffffff16815260200160011515815250600860008a8152602001908152602001600020600082015181600001556020820151816001015560408201518160020160006101000a81548173ffffffffffffffffffffffffffffffffffffffff021916908373ffffffffffffffffffffffffffffffffffffffff16021790555060608201518160030160006101000a81548173ffffffffffffffffffffffffffffffffffffffff021916908373ffffffffffffffffffffffffffffffffffffffff16021790555060808201518160040190805190602001906118cf929190612c6b565b5060a08201518160050190805190602001906118ec929190612c6b565b5060c0820151816006019080519060200190611909929190612c6b565b5060e0820151816007019080519060200190611926929190612c6b565b506101008201518160080155610120820151816009015561014082015181600a01908051906020019061195a929190612c6b565b5061016082015181600b015561018082015181600c0160006101000a81548160ff021916908360088111156119925761199161342b565b5b02179055506101a082015181600c0160016101000a81548173ffffffffffffffffffffffffffffffffffffffff021916908373ffffffffffffffffffffffffffffffffffffffff1602179055506101c082015181600d0160006101000a81548173ffffffffffffffffffffffffffffffffffffffff021916908373ffffffffffffffffffffffffffffffffffffffff1602179055506101e082015181600e0160006101000a81548173ffffffffffffffffffffffffffffffffffffffff021916908373ffffffffffffffffffffffffffffffffffffffff16021790555061020082015181600e0160146101000a81548160ff0219169083151502179055509050506001600754611aa2919061394c565b6007819055507fed6148fa7ac723c43ace6dfc06309afb0d0c3fce8dd23c21a42e88f9665a478c88604051611ad791906134c6565b60405180910390a15050505050505050565b611af233611142565b611b31576040517f08c379a0000000000000000000000000000000000000000000000000000000008152600401611b2890613379565b60405180910390fd5b8060076008811115611b4657611b4561342b565b5b60086000838152602001908152602001600020600c0160009054906101000a900460ff166008811115611b7c57611b7b61342b565b5b14611bbc576040517f08c379a0000000000000000000000000000000000000000000000000000000008152600401611bb390613a14565b60405180910390fd5b60086000838152602001908152602001600020600b015480341015611be057600080fd5b826000600860008681526020019081526020016000209050338160020160006101000a81548173ffffffffffffffffffffffffffffffffffffffff021916908373ffffffffffffffffffffffffffffffffffffffff1602179055503381600e0160006101000a81548173ffffffffffffffffffffffffffffffffffffffff021916908373ffffffffffffffffffffffffffffffffffffffff160217905550600881600c0160006101000a81548160ff02191690836008811115611ca657611ca561342b565b5b0217905550600081600b01549050600082600d0160009054906101000a900473ffffffffffffffffffffffffffffffffffffffff16905060008173ffffffffffffffffffffffffffffffffffffffff1683604051611d0390613a65565b60006040518083038185875af1925050503d8060008114611d40576040519150601f19603f3d011682016040523d82523d6000602084013e611d45565b606091505b5050905080611d89576040517f08c379a0000000000000000000000000000000000000000000000000000000008152600401611d8090613ac6565b60405180910390fd5b7f653d56639fee6b566a5c804764e9689de38645f0b733df89a36a1b7b42173dd888604051611db891906134c6565b60405180910390a150505050600060086000838152602001908152602001600020600b0154905060008134611ded9190613ae6565b9050600060086000858152602001908152602001600020600e0160009054906101000a900473ffffffffffffffffffffffffffffffffffffffff1690508073ffffffffffffffffffffffffffffffffffffffff166108fc839081150290604051600060405180830381858888f19350505050158015611e70573d6000803e3d6000fd5b5050505050505050565b611e83336129cd565b565b611e8e33610a50565b611ecd576040517f08c379a0000000000000000000000000000000000000000000000000000000008152600401611ec49061376a565b60405180910390fd5b8060046008811115611ee257611ee161342b565b5b60086000838152602001908152602001600020600c0160009054906101000a900460ff166008811115611f1857611f1761342b565b5b14611f58576040517f08c379a0000000000000000000000000000000000000000000000000000000008152600401611f4f90613b66565b60405180910390fd5b60086000838152602001908152602001600020600b015480341015611f7c57600080fd5b826000600860008681526020019081526020016000209050338160020160006101000a81548173ffffffffffffffffffffffffffffffffffffffff021916908373ffffffffffffffffffffffffffffffffffffffff1602179055503381600d0160006101000a81548173ffffffffffffffffffffffffffffffffffffffff021916908373ffffffffffffffffffffffffffffffffffffffff160217905550600581600c0160006101000a81548160ff021916908360088111156120425761204161342b565b5b021790555060008160030160009054906101000a900473ffffffffffffffffffffffffffffffffffffffff169050600082600b0154905060008273ffffffffffffffffffffffffffffffffffffffff168260405161209f90613a65565b60006040518083038185875af1925050503d80600081146120dc576040519150601f19603f3d011682016040523d82523d6000602084013e6120e1565b606091505b5050905080612125576040517f08c379a000000000000000000000000000000000000000000000000000000000815260040161211c90613ac6565b60405180910390fd5b7f92f64ca637d023f354075a4be751b169c1a8a9ccb6d33cdd0cb35205439957278860405161215491906134c6565b60405180910390a150505050600060086000838152602001908152602001600020600b01549050600081346121899190613ae6565b9050600060086000858152602001908152602001600020600e0160009054906101000a900473ffffffffffffffffffffffffffffffffffffffff1690508073ffffffffffffffffffffffffffffffffffffffff166108fc839081150290604051600060405180830381858888f1935050505015801561220c573d6000803e3d6000fd5b5050505050505050565b61221e6111f9565b61225d576040517f08c379a000000000000000000000000000000000000000000000000000000000815260040161225490613646565b60405180910390fd5b61226681612a27565b50565b612272336115ce565b6122b1576040517f08c379a00000000000000000000000000000000000000000000000000000000081526004016122a89061340b565b60405180910390fd5b80600260088111156122c6576122c561342b565b5b60086000838152602001908152602001600020600c0160009054906101000a900460ff1660088111156122fc576122fb61342b565b5b1461233c576040517f08c379a0000000000000000000000000000000000000000000000000000000008152600401612333906137fc565b60405180910390fd5b338073ffffffffffffffffffffffffffffffffffffffff163373ffffffffffffffffffffffffffffffffffffffff161461237557600080fd5b600360086000858152602001908152602001600020600c0160006101000a81548160ff021916908360088111156123af576123ae61342b565b5b02179055507f9b3b66e2380b690bae22c73ef1428fb0c91e72fe14a4b6defa13035214187aff836040516123e391906134c6565b60405180910390a1505050565b6123f9336111dc565b612438576040517f08c379a000000000000000000000000000000000000000000000000000000000815260040161242f906136d8565b60405180910390fd5b806005600881111561244d5761244c61342b565b5b60086000838152602001908152602001600020600c0160009054906101000a900460ff1660088111156124835761248261342b565b5b146124c3576040517f08c379a00000000000000000000000000000000000000000000000000000000081526004016124ba90613bd2565b60405180910390fd5b338073ffffffffffffffffffffffffffffffffffffffff163373ffffffffffffffffffffffffffffffffffffffff16146124fc57600080fd5b600660086000858152602001908152602001600020600c0160006101000a81548160ff021916908360088111156125365761253561342b565b5b02179055507ff00b9a5725b80c54016f42114f6ed7792d22eecb116011c4afac29c57bef6c958360405161256a91906134c6565b60405180910390a1505050565b600073ffffffffffffffffffffffffffffffffffffffff168173ffffffffffffffffffffffffffffffffffffffff1614156125e7576040517f08c379a00000000000000000000000000000000000000000000000000000000081526004016125de90613c64565b60405180910390fd5b6125f182826126e9565b15612631576040517f08c379a000000000000000000000000000000000000000000000000000000000815260040161262890613cf6565b60405180910390fd5b60018260000160008373ffffffffffffffffffffffffffffffffffffffff1673ffffffffffffffffffffffffffffffffffffffff16815260200190815260200160002060006101000a81548160ff0219169083151502179055505050565b6126a381600161257790919063ffffffff16565b8073ffffffffffffffffffffffffffffffffffffffff167f28b26e7a3d20aedbc5f8f2ebf7da671c0491723a2b78f47a097b0e46dee0714260405160405180910390a250565b60008073ffffffffffffffffffffffffffffffffffffffff168273ffffffffffffffffffffffffffffffffffffffff16141561275a576040517f08c379a000000000000000000000000000000000000000000000000000000000815260040161275190613d88565b60405180910390fd5b8260000160008373ffffffffffffffffffffffffffffffffffffffff1673ffffffffffffffffffffffffffffffffffffffff16815260200190815260200160002060009054906101000a900460ff16905092915050565b6127c5816001612b5490919063ffffffff16565b8073ffffffffffffffffffffffffffffffffffffffff167fe3f5ed5f263f1f01764a96edfc7d025f511ec5f7d180e8816908b78bcf74f09860405160405180910390a250565b61281f816002612b5490919063ffffffff16565b8073ffffffffffffffffffffffffffffffffffffffff167f126174f6cf49c81cdb4a9214c6b8f037bef55b4ec31e4fc776cea2a1c8a88d5960405160405180910390a250565b61287981600261257790919063ffffffff16565b8073ffffffffffffffffffffffffffffffffffffffff167fddbf200aa634dc3fb81cfd68583dd1040d1c751d335e1d86b631bde3e977fea860405160405180910390a250565b6128d3816004612b5490919063ffffffff16565b8073ffffffffffffffffffffffffffffffffffffffff167f2f77368d7f609a944e8c1fd014fdf80a3dc6807b268dfa571f698de6fcc1d09260405160405180910390a250565b61292d81600361257790919063ffffffff16565b8073ffffffffffffffffffffffffffffffffffffffff167f71ae26cad02663e3d92efd6ec56031a80d74a20c0ab4183faa8bf262261c9baa60405160405180910390a250565b61298781600461257790919063ffffffff16565b8073ffffffffffffffffffffffffffffffffffffffff167fe668ee700a4c8d94f70287bcb6a01a069f95ca98b84b715031020ddf564a56f660405160405180910390a250565b6129e1816003612b5490919063ffffffff16565b8073ffffffffffffffffffffffffffffffffffffffff167fdb7176e79cffef81cb01767dd0447a0b24bb72ca9778d4b245581086b2a7e6db60405160405180910390a250565b600073ffffffffffffffffffffffffffffffffffffffff168173ffffffffffffffffffffffffffffffffffffffff161415612a97576040517f08c379a0000000000000000000000000000000000000000000000000000000008152600401612a8e90613e1a565b60405180910390fd5b8073ffffffffffffffffffffffffffffffffffffffff1660008054906101000a900473ffffffffffffffffffffffffffffffffffffffff1673ffffffffffffffffffffffffffffffffffffffff167f5c486528ec3e3f0ea91181cff8116f02bfa350e03b8b6f12e00765adbb5af85c60405160405180910390a3806000806101000a81548173ffffffffffffffffffffffffffffffffffffffff021916908373ffffffffffffffffffffffffffffffffffffffff16021790555050565b600073ffffffffffffffffffffffffffffffffffffffff168173ffffffffffffffffffffffffffffffffffffffff161415612bc4576040517f08c379a0000000000000000000000000000000000000000000000000000000008152600401612bbb90613eac565b60405180910390fd5b612bce82826126e9565b612c0d576040517f08c379a0000000000000000000000000000000000000000000000000000000008152600401612c0490613f18565b60405180910390fd5b60008260000160008373ffffffffffffffffffffffffffffffffffffffff1673ffffffffffffffffffffffffffffffffffffffff16815260200190815260200160002060006101000a81548160ff0219169083151502179055505050565b828054612c77906135a2565b90600052602060002090601f016020900481019282612c995760008555612ce0565b82601f10612cb257805160ff1916838001178555612ce0565b82800160010185558215612ce0579182015b82811115612cdf578251825591602001919060010190612cc4565b5b509050612ced9190612cf1565b5090565b5b80821115612d0a576000816000905550600101612cf2565b5090565b6000604051905090565b600080fd5b600080fd5b600073ffffffffffffffffffffffffffffffffffffffff82169050919050565b6000612d4d82612d22565b9050919050565b612d5d81612d42565b8114612d6857600080fd5b50565b600081359050612d7a81612d54565b92915050565b600060208284031215612d9657612d95612d18565b5b6000612da484828501612d6b565b91505092915050565b6000819050919050565b612dc081612dad565b8114612dcb57600080fd5b50565b600081359050612ddd81612db7565b92915050565b60008060408385031215612dfa57612df9612d18565b5b6000612e0885828601612dce565b9250506020612e1985828601612dce565b9150509250929050565b600060208284031215612e3957612e38612d18565b5b6000612e4784828501612dce565b91505092915050565b60008115159050919050565b612e6581612e50565b82525050565b6000602082019050612e806000830184612e5c565b92915050565b612e8f81612dad565b82525050565b600081519050919050565b600082825260208201905092915050565b60005b83811015612ecf578082015181840152602081019050612eb4565b83811115612ede576000848401525b50505050565b6000601f19601f8301169050919050565b6000612f0082612e95565b612f0a8185612ea0565b9350612f1a818560208601612eb1565b612f2381612ee4565b840191505092915050565b612f3781612d42565b82525050565b600061014082019050612f53600083018d612e86565b612f60602083018c612e86565b612f6d604083018b612e86565b612f7a606083018a612e86565b8181036080830152612f8c8189612ef5565b9050612f9b60a0830188612e86565b612fa860c0830187612e86565b612fb560e0830186612f2e565b612fc3610100830185612f2e565b612fd1610120830184612f2e565b9b9a5050505050505050505050565b600061012082019050612ff6600083018c612e86565b613003602083018b612e86565b613010604083018a612f2e565b61301d6060830189612f2e565b818103608083015261302f8188612ef5565b905081810360a08301526130438187612ef5565b905081810360c08301526130578186612ef5565b905081810360e083015261306b8185612ef5565b905061307b610100830184612e5c565b9a9950505050505050505050565b600060208201905061309e6000830184612f2e565b92915050565b600080fd5b600080fd5b7f4e487b7100000000000000000000000000000000000000000000000000000000600052604160045260246000fd5b6130e682612ee4565b810181811067ffffffffffffffff82111715613105576131046130ae565b5b80604052505050565b6000613118612d0e565b905061312482826130dd565b919050565b600067ffffffffffffffff821115613144576131436130ae565b5b61314d82612ee4565b9050602081019050919050565b82818337600083830152505050565b600061317c61317784613129565b61310e565b905082815260208101848484011115613198576131976130a9565b5b6131a384828561315a565b509392505050565b600082601f8301126131c0576131bf6130a4565b5b81356131d0848260208601613169565b91505092915050565b600080600080600080600060e0888a0312156131f8576131f7612d18565b5b60006132068a828b01612dce565b97505060206132178a828b01612d6b565b965050604088013567ffffffffffffffff81111561323857613237612d1d565b5b6132448a828b016131ab565b955050606088013567ffffffffffffffff81111561326557613264612d1d565b5b6132718a828b016131ab565b945050608088013567ffffffffffffffff81111561329257613291612d1d565b5b61329e8a828b016131ab565b93505060a088013567ffffffffffffffff8111156132bf576132be612d1d565b5b6132cb8a828b016131ab565b92505060c088013567ffffffffffffffff8111156132ec576132eb612d1d565b5b6132f88a828b016131ab565b91505092959891949750929550565b7f4f6e6c79206120436f6e73756d65722063616e2063616c6c207468697320667560008201527f6e6374696f6e0000000000000000000000000000000000000000000000000000602082015250565b6000613363602683612ea0565b915061336e82613307565b604082019050919050565b6000602082019050818103600083015261339281613356565b9050919050565b7f4f6e6c792061205669676e65726f6e2063616e2063616c6c207468697320667560008201527f6e6374696f6e0000000000000000000000000000000000000000000000000000602082015250565b60006133f5602683612ea0565b915061340082613399565b604082019050919050565b60006020820190508181036000830152613424816133e8565b9050919050565b7f4e487b7100000000000000000000000000000000000000000000000000000000600052602160045260246000fd5b7f546865206974656d207374617465206973206e6f7420275061636b6564272000600082015250565b6000613490601f83612ea0565b915061349b8261345a565b602082019050919050565b600060208201905081810360008301526134bf81613483565b9050919050565b60006020820190506134db6000830184612e86565b92915050565b7f546865206974656d207374617465206973206e6f74202748617276657374656460008201527f2720000000000000000000000000000000000000000000000000000000000000602082015250565b600061353d602283612ea0565b9150613548826134e1565b604082019050919050565b6000602082019050818103600083015261356c81613530565b9050919050565b7f4e487b7100000000000000000000000000000000000000000000000000000000600052602260045260246000fd5b600060028204905060018216806135ba57607f821691505b602082108114156135ce576135cd613573565b5b50919050565b7f4f6e6c7920746865206f776e6572206f662074686520636f6e7472616374206360008201527f616e2063616c6c20746869732066756e6374696f6e0000000000000000000000602082015250565b6000613630603583612ea0565b915061363b826135d4565b604082019050919050565b6000602082019050818103600083015261365f81613623565b9050919050565b7f4f6e6c792061204469737472696275746f722063616e2063616c6c207468697360008201527f2066756e6374696f6e0000000000000000000000000000000000000000000000602082015250565b60006136c2602983612ea0565b91506136cd82613666565b604082019050919050565b600060208201905081810360008301526136f1816136b5565b9050919050565b7f4f6e6c7920612052657461696c65722063616e2063616c6c207468697320667560008201527f6e6374696f6e0000000000000000000000000000000000000000000000000000602082015250565b6000613754602683612ea0565b915061375f826136f8565b604082019050919050565b6000602082019050818103600083015261378381613747565b9050919050565b7f546865206974656d207374617465206973206e6f74202750726f63657373656460008201527f2720000000000000000000000000000000000000000000000000000000000000602082015250565b60006137e6602283612ea0565b91506137f18261378a565b604082019050919050565b60006020820190508181036000830152613815816137d9565b9050919050565b60006040820190506138316000830185612e86565b61383e6020830184612e86565b9392505050565b7f546865206974656d207374617465206973206e6f742027536869707065642720600082015250565b600061387b602083612ea0565b915061388682613845565b602082019050919050565b600060208201905081810360008301526138aa8161386e565b9050919050565b7f546869732075706320697320616c726561647920696e20757365000000000000600082015250565b60006138e7601a83612ea0565b91506138f2826138b1565b602082019050919050565b60006020820190508181036000830152613916816138da565b9050919050565b7f4e487b7100000000000000000000000000000000000000000000000000000000600052601160045260246000fd5b600061395782612dad565b915061396283612dad565b9250827fffffffffffffffffffffffffffffffffffffffffffffffffffffffffffffffff038211156139975761399661391d565b5b828201905092915050565b7f546865206974656d207374617465206973206e6f74202752656365697665642760008201527f2000000000000000000000000000000000000000000000000000000000000000602082015250565b60006139fe602183612ea0565b9150613a09826139a2565b604082019050919050565b60006020820190508181036000830152613a2d816139f1565b9050919050565b600081905092915050565b50565b6000613a4f600083613a34565b9150613a5a82613a3f565b600082019050919050565b6000613a7082613a42565b9150819050919050565b7f5472616e73666572206661696c65640000000000000000000000000000000000600082015250565b6000613ab0600f83612ea0565b9150613abb82613a7a565b602082019050919050565b60006020820190508181036000830152613adf81613aa3565b9050919050565b6000613af182612dad565b9150613afc83612dad565b925082821015613b0f57613b0e61391d565b5b828203905092915050565b7f546865206974656d207374617465206973206e6f742027466f7253616c652720600082015250565b6000613b50602083612ea0565b9150613b5b82613b1a565b602082019050919050565b60006020820190508181036000830152613b7f81613b43565b9050919050565b7f546865206974656d207374617465206973206e6f742027536f6c642720000000600082015250565b6000613bbc601d83612ea0565b9150613bc782613b86565b602082019050919050565b60006020820190508181036000830152613beb81613baf565b9050919050565b7f526f6c65732e736f6c2f6164643a204d75737420626520612076616c6964206160008201527f6464726573730000000000000000000000000000000000000000000000000000602082015250565b6000613c4e602683612ea0565b9150613c5982613bf2565b604082019050919050565b60006020820190508181036000830152613c7d81613c41565b9050919050565b7f596f752061726520616c726561647920616464656420746f207468697320726f60008201527f6c65000000000000000000000000000000000000000000000000000000000000602082015250565b6000613ce0602283612ea0565b9150613ceb82613c84565b604082019050919050565b60006020820190508181036000830152613d0f81613cd3565b9050919050565b7f526f6c65732e736f6c2f6861733a204d75737420626520612076616c6964206160008201527f6464726573730000000000000000000000000000000000000000000000000000602082015250565b6000613d72602683612ea0565b9150613d7d82613d16565b604082019050919050565b60006020820190508181036000830152613da181613d65565b9050919050565b7f4f776e61626c652e736f6c3a204d75737420626520612076616c69642061646460008201527f7265737300000000000000000000000000000000000000000000000000000000602082015250565b6000613e04602483612ea0565b9150613e0f82613da8565b604082019050919050565b60006020820190508181036000830152613e3381613df7565b9050919050565b7f526f6c65732e736f6c2f72656d6f76653a204d75737420626520612076616c6960008201527f6420616464726573730000000000000000000000000000000000000000000000602082015250565b6000613e96602983612ea0565b9150613ea182613e3a565b604082019050919050565b60006020820190508181036000830152613ec581613e89565b9050919050565b7f596f75206d75737420626520616464656420746f2062652072656d6f76656400600082015250565b6000613f02601f83612ea0565b9150613f0d82613ecc565b602082019050919050565b60006020820190508181036000830152613f3181613ef5565b905091905056fea26469706673582212206633c88757ba016b27daccc92b3baad3b38edb65010eb953a114b36678eda48164736f6c634300080b0033",
  "immutableReferences": {},
  "source": "// SPDX-License-Identifier: MIT\npragma solidity ^0.8.0;\n\nimport \"../wineAccessControl/ConsumerRole.sol\";\nimport \"../wineAccessControl/DistributorRole.sol\";\nimport \"../wineAccessControl/RetailerRole.sol\";\nimport \"../wineAccessControl/VigneronRole.sol\";\nimport \"../wineCore/Ownable.sol\";\n// Define a contract 'Supplychain'\n\ncontract SupplyChain is Ownable, ConsumerRole, DistributorRole, RetailerRole, VigneronRole{\n\n  // *** TERMINOLOGY ***\n  // - Viticulture = grape growing and cultivating process\n  // - Vinification = Winemaking process\n  // - Elevage = Barrel ageing process\n  // - Vigneron = a person who cultivates grapes for winemaking\n  // - Vineyard = plantation of grape-bearing vines for winemaking \n\n  address payable contractOwner;\n\n  //Universal Product Code (UPC)\n  uint  upc;\n\n  // Stock Keeping Unit (SKU)\n  uint  sku;\n\n  enum State \n  { \n    Viticultured, // 0\n    Vinified,     // 1\n    Elevaged,     // 2\n    Packed,       // 3\n    ForSale,      // 4\n    Sold,         // 5\n    Shipped,      // 6\n    Received,     // 7\n    Purchased     // 8\n    }\n\n  State constant defaultState = State.Viticultured;\n\n  struct Item {\n    uint    sku;  // Stock Keeping Unit (SKU)\n    uint    upc; // Universal Product Code (UPC), generated by the vigneron, goes on the package, can be verified by the Consumer\n    address ownerID;  // address of the current owner as the product moves through 9 stages in the supply chain \n    address originVigneronID; \n    string  originVineyardName; \n    string  originVineyardInformation;\n    string  originVineyardLatitude; \n    string  originVineyardLongitude; \n    uint    productID;  // Product ID = upc + sku\n    uint256 productAge; // Age of the wine \n    string  productNotes; \n    uint    productPrice; \n    State   itemState; \n    address distributorID;  \n    address retailerID; \n    address consumerID; \n    bool    initialised;\n  }\n\n  // UPC => Item\n  mapping (uint => Item) items;\n\n  \n  event Viticultured(uint upc); // * Viticulture = grape growing and cultivating process\n  event Vinified(uint upc); // * Vinification = Winemaking process\n  event Elevaged(uint upc, uint age); // * Elevage = Barrel Ageing process\n  event Packed(uint upc);\n  event ForSale(uint upc);\n  event Sold(uint upc);\n  event Shipped(uint upc);\n  event Received(uint upc);\n  event Purchased(uint upc);\n\n  \n  constructor() payable {\n    contractOwner = payable(msg.sender);\n    sku = 1;\n    upc = 1;\n  }\n\n\n\n\n\n\n\n\n  modifier verifyCaller (address _address) {\n    require(msg.sender == _address); \n    _;\n  }\n\n \n  modifier paidEnough(uint _price) { \n    require(msg.value >= _price); \n    _;\n  }\n  \n  \n  modifier checkValue(uint _upc) {\n    _;\n    uint _price = items[_upc].productPrice;\n    uint amountToReturn = msg.value - _price;\n    address consumer = items[_upc].consumerID;\n    payable(consumer).transfer(amountToReturn);\n  }\n\n  modifier viticultured(uint _upc) {\n    require(items[_upc].itemState == State.Viticultured, \"The item state is not 'Harvested' \");\n    _;\n  }\n\n  modifier vinified(uint _upc) {\n    require(items[_upc].itemState == State.Vinified, \"The item state is not 'Processed' \");\n    _;\n  }\n\n  modifier elevaged(uint _upc) {\n    require(items[_upc].itemState == State.Elevaged, \"The item state is not 'Processed' \");\n    _;\n  }\n  \n  modifier packed(uint _upc) {\n    require(items[_upc].itemState == State.Packed, \"The item state is not 'Packed' \");\n    _;\n  }\n\n  modifier forSale(uint _upc) {\n    require(items[_upc].itemState == State.ForSale, \"The item state is not 'ForSale' \");\n    _;\n  }\n\n  modifier sold(uint _upc) {\n    require(items[_upc].itemState == State.Sold, \"The item state is not 'Sold' \");\n    _;\n  }\n  \n  modifier shipped(uint _upc) {\n    require(items[_upc].itemState == State.Shipped, \"The item state is not 'Shipped' \");\n    _;\n  }\n\n  modifier received(uint _upc) {\n    require(items[_upc].itemState == State.Received, \"The item state is not 'Received' \");\n    _;\n  }\n\n  modifier purchased(uint _upc) {\n    require(items[_upc].itemState == State.Purchased, \"The item state is not 'Purchased' \");\n    _;\n  }\n\n  \n\n\n\n\n  \n  function kill() public {\n    if (msg.sender == contractOwner) {\n      selfdestruct(contractOwner);\n    }\n  }\n\n\n\n\n\n\n\n\n  \n  ///// **** SETTER/STAGE functions ****\n\n  function viticultureItem(uint _upc, \n                       address _originVigneronID, \n                       string memory _originVineyardName, \n                       string memory _originVineyardInformation, \n                       string  memory _originVineyardLatitude, \n                       string  memory _originVineyardLongitude, \n                       string  memory _productNotes) \n  public onlyVigneron {\n    require(items[_upc].initialised == false, \"This upc is already in use\");\n\n    uint256 _productID = sku + _upc;\n\n    items[_upc]= Item({\n      sku: sku, \n      upc: _upc,\n      ownerID: _originVigneronID,\n      originVigneronID: _originVigneronID,\n      originVineyardName: _originVineyardName,\n      originVineyardInformation: _originVineyardInformation,  \n      originVineyardLatitude: _originVineyardLatitude,\n      originVineyardLongitude: _originVineyardLongitude,\n      productID: _productID,\n      productAge: 0, \n      productNotes: _productNotes,\n      productPrice: 0,\n      itemState: State.Viticultured,\n      distributorID: address(0),  \n      retailerID: address(0),\n      consumerID: address(0),\n      initialised: true\n    });\n    \n    sku = sku + 1;\n\n    emit Viticultured(_upc);\n  }\n\n  \n  function vinifyItem(uint _upc) public onlyVigneron viticultured(_upc) verifyCaller(msg.sender){\n    items[_upc].itemState = State.Vinified;\n    emit Vinified(_upc);\n  }\n\n\n  function elevageItem(uint _upc, uint256 _age) public onlyVigneron vinified(_upc) verifyCaller(msg.sender){\n    items[_upc].itemState = State.Elevaged;\n    items[_upc].productAge = _age;\n   \n    emit Elevaged(_upc, _age);\n  }\n\n  \n  function packItem(uint _upc) public onlyVigneron elevaged(_upc) verifyCaller(msg.sender){\n    items[_upc].itemState = State.Packed;\n \n    emit Packed(_upc);\n  }\n\n  \n  function sellItem(uint _upc, uint _price) public onlyVigneron packed(_upc) verifyCaller(msg.sender){\n    items[_upc].itemState = State.ForSale;\n    items[_upc].productPrice = _price;\n    \n    emit ForSale(_upc);\n  }\n\n  \n  function buyItem(uint _upc) public payable onlyRetailer forSale(_upc) paidEnough(items[_upc].productPrice) checkValue(_upc) {\n    Item storage product = items[_upc];\n    product.ownerID = msg.sender;\n    product.retailerID = msg.sender;\n    product.itemState = State.Sold;\n\n    address vigneron = product.originVigneronID;\n    uint256 amount = product.productPrice;\n\n    (bool success, ) = payable(vigneron).call{value: amount}(\"\");\n    require(success, \"Transfer failed\");\n    \n    emit Sold(_upc);\n  }\n\n  \n  function shipItem(uint _upc) public onlyDistributor sold(_upc) verifyCaller(msg.sender){\n    items[_upc].itemState = State.Shipped;\n\n    emit Shipped(_upc);\n  }\n\n  \n  function receiveItem(uint _upc) public onlyRetailer shipped(_upc) {\n    Item storage product = items[_upc];\n    product.ownerID = msg.sender;\n    product.retailerID = msg.sender;\n    product.itemState = State.Received;\n    \n    emit Received(_upc);\n  }\n\n\n  function purchaseItem(uint _upc) public payable onlyConsumer received(_upc) paidEnough(items[_upc].productPrice) checkValue(_upc){\n    Item storage product = items[_upc];\n    product.ownerID = msg.sender;\n    product.consumerID = msg.sender;\n    product.itemState = State.Purchased;\n    uint amount = product.productPrice;\n    address retailer = product.retailerID;\n\n    (bool success, ) = payable(retailer).call{value: amount}(\"\");\n    require(success, \"Transfer failed\");\n\n    emit Purchased(_upc);\n  }\n\n\n\n\n\n\n\n\n\n\n\n  \n  //**** GETTER Functions **** \n\n  function fetchItemBufferOne(uint _upc) public view returns \n  ( uint    itemSKU,\n    uint    itemUPC,\n    address ownerID,\n    address originVigneronID,\n    string  memory originVineyardName,\n    string  memory originVineyardInformation,\n    string  memory originVineyardLatitude,\n    string  memory originVineyardLongitude,\n    bool    initialised ) \n  {\n\n  itemSKU = items[_upc].sku;\n  itemUPC = _upc;\n  ownerID = items[_upc].ownerID;\n  originVigneronID = items[_upc].originVigneronID;\n  originVineyardName = items[_upc].originVineyardName;\n  originVineyardInformation = items[_upc].originVineyardInformation;\n  originVineyardLatitude = items[_upc].originVineyardLatitude;\n  originVineyardLongitude = items[_upc].originVineyardLongitude;\n  initialised = items[_upc].initialised; \n\n    \n  return ( itemSKU,\n           itemUPC,\n           ownerID,\n           originVigneronID,\n           originVineyardName,\n           originVineyardInformation,\n           originVineyardLatitude,\n           originVineyardLongitude, \n           initialised);\n  }\n\n\n  function fetchItemBufferTwo(uint _upc) public view returns \n  ( uint    itemSKU,\n    uint    itemUPC,\n    uint    productID,\n    uint    productAge,\n    string  memory productNotes,\n    uint    productPrice,\n    uint    itemState,\n    address distributorID,\n    address retailerID,\n    address consumerID ) \n  {\n\n  itemSKU = items[_upc].sku;\n  itemUPC = _upc;\n  productID = items[_upc].productID;\n  productAge = items[_upc].productAge;\n  productNotes = items[_upc].productNotes;\n  productPrice = items[_upc].productPrice;\n  itemState = uint256(items[_upc].itemState);\n  distributorID = items[_upc].distributorID;\n  retailerID = items[_upc].retailerID;\n  consumerID = items[_upc].consumerID;\n    \n  return \n  ( itemSKU,\n    itemUPC,\n    productID,\n    productAge,\n    productNotes,\n    productPrice,\n    itemState,\n    distributorID,\n    retailerID,\n    consumerID );\n  }\n\n}\n",
  "sourcePath": "/Users/OllieFrancis/Documents/UDACITYprojects/WineSupplyChainDApp/contracts/wineBase/SupplyChain.sol",
  "compiler": {
    "name": "solc",
    "version": "0.8.11+commit.d7f03943.Emscripten.clang"
  },
  "schemaVersion": "3.4.4",
  "updatedAt": "2022-01-17T10:31:08.633Z",
  "networkType": "ethereum",
  "devdoc": {
    "kind": "dev",
    "methods": {},
    "version": 1
  },
  "userdoc": {
    "kind": "user",
    "methods": {},
    "version": 1
  }
}