{
  "contractName": "VigneronRole",
  "abi": [
    {
      "inputs": [],
      "stateMutability": "nonpayable",
      "type": "constructor"
    },
    {
      "anonymous": false,
      "inputs": [
        {
          "indexed": true,
          "internalType": "address",
          "name": "account",
          "type": "address"
        }
      ],
      "name": "VigneronAdded",
      "type": "event"
    },
    {
      "anonymous": false,
      "inputs": [
        {
          "indexed": true,
          "internalType": "address",
          "name": "account",
          "type": "address"
        }
      ],
      "name": "VigneronRemoved",
      "type": "event"
    },
    {
      "inputs": [
        {
          "internalType": "address",
          "name": "account",
          "type": "address"
        }
      ],
      "name": "isVigneron",
      "outputs": [
        {
          "internalType": "bool",
          "name": "",
          "type": "bool"
        }
      ],
      "stateMutability": "view",
      "type": "function",
      "constant": true
    },
    {
      "inputs": [
        {
          "internalType": "address",
          "name": "account",
          "type": "address"
        }
      ],
      "name": "addVigneron",
      "outputs": [],
      "stateMutability": "nonpayable",
      "type": "function"
    },
    {
      "inputs": [],
      "name": "renounceVigneron",
      "outputs": [],
      "stateMutability": "nonpayable",
      "type": "function"
    }
  ],
  "bytecode": "0x60806040523480156200001157600080fd5b5062000023336200002960201b60201c565b62000454565b620000448160006200008a60201b620001181790919060201c565b8073ffffffffffffffffffffffffffffffffffffffff167fe668ee700a4c8d94f70287bcb6a01a069f95ca98b84b715031020ddf564a56f660405160405180910390a250565b600073ffffffffffffffffffffffffffffffffffffffff168173ffffffffffffffffffffffffffffffffffffffff161415620000fd576040517f08c379a0000000000000000000000000000000000000000000000000000000008152600401620000f49062000302565b60405180910390fd5b6200010f8282620001b060201b60201c565b1562000152576040517f08c379a000000000000000000000000000000000000000000000000000000000815260040162000149906200039a565b60405180910390fd5b60018260000160008373ffffffffffffffffffffffffffffffffffffffff1673ffffffffffffffffffffffffffffffffffffffff16815260200190815260200160002060006101000a81548160ff0219169083151502179055505050565b60008073ffffffffffffffffffffffffffffffffffffffff168273ffffffffffffffffffffffffffffffffffffffff16141562000224576040517f08c379a00000000000000000000000000000000000000000000000000000000081526004016200021b9062000432565b60405180910390fd5b8260000160008373ffffffffffffffffffffffffffffffffffffffff1673ffffffffffffffffffffffffffffffffffffffff16815260200190815260200160002060009054906101000a900460ff16905092915050565b600082825260208201905092915050565b7f526f6c65732e736f6c2f6164643a204d75737420626520612076616c6964206160008201527f6464726573730000000000000000000000000000000000000000000000000000602082015250565b6000620002ea6026836200027b565b9150620002f7826200028c565b604082019050919050565b600060208201905081810360008301526200031d81620002db565b9050919050565b7f596f752061726520616c726561647920616464656420746f207468697320726f60008201527f6c65000000000000000000000000000000000000000000000000000000000000602082015250565b6000620003826022836200027b565b91506200038f8262000324565b604082019050919050565b60006020820190508181036000830152620003b58162000373565b9050919050565b7f526f6c65732e736f6c2f6861733a204d75737420626520612076616c6964206160008201527f6464726573730000000000000000000000000000000000000000000000000000602082015250565b60006200041a6026836200027b565b91506200042782620003bc565b604082019050919050565b600060208201905081810360008301526200044d816200040b565b9050919050565b61091680620004646000396000f3fe608060405234801561001057600080fd5b50600436106100415760003560e01c80637e6d8c7014610046578063b152e76e14610050578063b86d2d7114610080575b600080fd5b61004e61009c565b005b61006a60048036038101906100659190610526565b6100a7565b604051610077919061056e565b60405180910390f35b61009a60048036038101906100959190610526565b6100c4565b005b6100a533610230565b565b60006100bd82600061028a90919063ffffffff16565b9050919050565b6100cd336100a7565b61010c576040517f08c379a00000000000000000000000000000000000000000000000000000000081526004016101039061060c565b60405180910390fd5b61011581610352565b50565b600073ffffffffffffffffffffffffffffffffffffffff168173ffffffffffffffffffffffffffffffffffffffff161415610188576040517f08c379a000000000000000000000000000000000000000000000000000000000815260040161017f9061069e565b60405180910390fd5b610192828261028a565b156101d2576040517f08c379a00000000000000000000000000000000000000000000000000000000081526004016101c990610730565b60405180910390fd5b60018260000160008373ffffffffffffffffffffffffffffffffffffffff1673ffffffffffffffffffffffffffffffffffffffff16815260200190815260200160002060006101000a81548160ff0219169083151502179055505050565b6102448160006103ac90919063ffffffff16565b8073ffffffffffffffffffffffffffffffffffffffff167f2f77368d7f609a944e8c1fd014fdf80a3dc6807b268dfa571f698de6fcc1d09260405160405180910390a250565b60008073ffffffffffffffffffffffffffffffffffffffff168273ffffffffffffffffffffffffffffffffffffffff1614156102fb576040517f08c379a00000000000000000000000000000000000000000000000000000000081526004016102f2906107c2565b60405180910390fd5b8260000160008373ffffffffffffffffffffffffffffffffffffffff1673ffffffffffffffffffffffffffffffffffffffff16815260200190815260200160002060009054906101000a900460ff16905092915050565b61036681600061011890919063ffffffff16565b8073ffffffffffffffffffffffffffffffffffffffff167fe668ee700a4c8d94f70287bcb6a01a069f95ca98b84b715031020ddf564a56f660405160405180910390a250565b600073ffffffffffffffffffffffffffffffffffffffff168173ffffffffffffffffffffffffffffffffffffffff16141561041c576040517f08c379a000000000000000000000000000000000000000000000000000000000815260040161041390610854565b60405180910390fd5b610426828261028a565b610465576040517f08c379a000000000000000000000000000000000000000000000000000000000815260040161045c906108c0565b60405180910390fd5b60008260000160008373ffffffffffffffffffffffffffffffffffffffff1673ffffffffffffffffffffffffffffffffffffffff16815260200190815260200160002060006101000a81548160ff0219169083151502179055505050565b600080fd5b600073ffffffffffffffffffffffffffffffffffffffff82169050919050565b60006104f3826104c8565b9050919050565b610503816104e8565b811461050e57600080fd5b50565b600081359050610520816104fa565b92915050565b60006020828403121561053c5761053b6104c3565b5b600061054a84828501610511565b91505092915050565b60008115159050919050565b61056881610553565b82525050565b6000602082019050610583600083018461055f565b92915050565b600082825260208201905092915050565b7f4f6e6c792061204661726d65722063616e2063616c6c20746869732066756e6360008201527f74696f6e00000000000000000000000000000000000000000000000000000000602082015250565b60006105f6602483610589565b91506106018261059a565b604082019050919050565b60006020820190508181036000830152610625816105e9565b9050919050565b7f526f6c65732e736f6c2f6164643a204d75737420626520612076616c6964206160008201527f6464726573730000000000000000000000000000000000000000000000000000602082015250565b6000610688602683610589565b91506106938261062c565b604082019050919050565b600060208201905081810360008301526106b78161067b565b9050919050565b7f596f752061726520616c726561647920616464656420746f207468697320726f60008201527f6c65000000000000000000000000000000000000000000000000000000000000602082015250565b600061071a602283610589565b9150610725826106be565b604082019050919050565b600060208201905081810360008301526107498161070d565b9050919050565b7f526f6c65732e736f6c2f6861733a204d75737420626520612076616c6964206160008201527f6464726573730000000000000000000000000000000000000000000000000000602082015250565b60006107ac602683610589565b91506107b782610750565b604082019050919050565b600060208201905081810360008301526107db8161079f565b9050919050565b7f526f6c65732e736f6c2f72656d6f76653a204d75737420626520612076616c6960008201527f6420616464726573730000000000000000000000000000000000000000000000602082015250565b600061083e602983610589565b9150610849826107e2565b604082019050919050565b6000602082019050818103600083015261086d81610831565b9050919050565b7f596f75206d75737420626520616464656420746f2062652072656d6f76656400600082015250565b60006108aa601f83610589565b91506108b582610874565b602082019050919050565b600060208201905081810360008301526108d98161089d565b905091905056fea26469706673582212200e49d2c4adf4eaf1e205e3099d14c3a10de6f51ce3932eff6e739721c8621b6864736f6c634300080b0033",
  "immutableReferences": {},
  "source": "// SPDX-License-Identifier: MIT\npragma solidity ^0.8.0;\n\n// Import the library 'Roles'\nimport \"./Roles.sol\";\n\n// Define a contract 'VigneronRole' to manage this role - add, remove, check\ncontract VigneronRole {\n  using Roles for Roles.Role;\n\n  // Define 2 events, one for Adding, and other for Removing\n  event VigneronAdded(address indexed account);\n  event VigneronRemoved(address indexed account);\n\n  // Define a struct 'Vignerons' by inheriting from 'Roles' library, struct Role\n  Roles.Role private vignerons;\n\n  // In the constructor make the address that deploys this contract the 1st farmer\n  constructor(){\n    _addVigneron(msg.sender);\n  }\n\n  // Define a modifier that checks to see if msg.sender has the appropriate role\n  modifier onlyVigneron() {\n    require(isVigneron(msg.sender), \"Only a Farmer can call this function\");\n    _;\n  }\n\n  // Define a function 'isVigneron' to check this role\n  function isVigneron(address account) public view returns (bool) {\n    return vignerons.has(account);\n  }\n\n  // Define a function 'addVigneron' that adds this role\n  function addVigneron(address account) public onlyVigneron {\n    _addVigneron(account);\n  }\n\n  // Define a function 'renounceVigneron' to renounce this role\n  function renounceVigneron() public {\n    _removeVigneron(msg.sender);\n  }\n\n  // Define an internal function '_addVigneron' to add this role, called by 'addVigneron'\n  function _addVigneron(address account) internal {\n    vignerons.add(account);\n    emit VigneronAdded(account);\n  }\n\n  // Define an internal function '_removeVigneron' to remove this role, called by 'removeVigneron'\n  function _removeVigneron(address account) internal {\n    vignerons.remove(account);\n    emit VigneronRemoved(account);\n  }\n}",
  "sourcePath": "/Users/OllieFrancis/Documents/UDACITYprojects/WineSupplyChainDApp/contracts/wineAccessControl/VigneronRole.sol",
  "compiler": {
    "name": "solc",
    "version": "0.8.11+commit.d7f03943.Emscripten.clang"
  },
  "schemaVersion": "3.4.4",
  "updatedAt": "2022-01-14T10:50:28.325Z",
  "networkType": "ethereum",
  "devdoc": {
    "kind": "dev",
    "methods": {},
    "version": 1
  },
  "userdoc": {
    "kind": "user",
    "methods": {},
    "version": 1
  }
}